:020000040800F2
:100000000004002021030008230300082303000844
:100010002303000823030008230300082303000828
:1000200023030008230300082303000845470008B2
:100030002303000823030008230300082303000808
:1000400023030008230300082303000823030008F8
:1000500023030008230300082303000823030008E8
:100060002303000823030008230300088550000829
:10007000AD500008D9500008055100083151000862
:100080005951000885510008230300082303000884
:1000900023030008230300082303000823030008A8
:1000A0002303000823030008230300082303000898
:1000B000ED6300082303000823030008AD55000882
:1000C000BD5600082303000823030008230300088B
:1000D0002303000823030008230300082303000868
:1000E0002303000823030008230300082303000858
:1000F000230300082303000823030008B15100086C
:100100002303000823030008756400082303000884
:100110002303000823030008230300082303000827
:10012000DD51000805520008315200085D520008F8
:100130008952000823030008230300082303000852
:100140002303000823030008230300086960000854
:10015000B1520008DD5200080953000823030008CB
:1001600023030008230300082303000823030008D7
:1001700023030008230300082303000823030008C7
:1001800023030008230300082303000823030008B7
:1001900023030008230300082303000823030008A7
:1001A0002303000823030008230300082303000897
:1001B0002303000823030008230300082303000887
:1001C0002303000823030008230300082303000877
:1001D0002303000823030008230300082303000867
:0801E000F9120008D512000815
:1002000072B6394880F30888384880F3098838483E
:100210004EF60851CEF20001086040F20000CCF228
:1002200000004EF63471CEF200010860BFF34F8F2C
:10023000BFF36F8F40F20000C0F2F0004EF688511D
:10024000CEF200010860BFF34F8FBFF36F8F4FF006
:100250000000E1EE100A4EF63C71CEF2000108609B
:10026000062080F31488BFF36F8F04F00DF803F0BD
:100270006CFF4FF055301F491B4A91423CBF41F87B
:10028000040BFAE71C49194A91423CBF41F8040BA0
:10029000FAE71A491A4A1B4B9A423EBF51F8040B1F
:1002A00042F8040BF8E700201749184A91423CBF76
:1002B00041F8040BFAE703F0EBFF03F0E6FF144C00
:1002C000144DAC4203DA54F8041B8847F9E703F0F5
:1002D0004BFF114C114DAC4203DA54F8041B884714
:1002E000F9E703F0D3BF000000040020000C002059
:1002F0000000000800000020000400202088000802
:10030000000C00208C0C0020900C00207C1500209C
:10031000E0010008E4010008E4010008E801000829
:100320006EE700F000F8FEE72DE9F04F2DED108AA2
:10033000C1F80CD0C3689D46BDEC108ABDE8F08FB3
:10034000002383F311882846A047002004F0CCF94D
:10035000FEE704F087F900DFFEE7000053B94AB971
:10036000002908BF00281CBF4FF0FF314FF0FF30BD
:1003700000F00CB8ADF1080C6DE904CE06F0E8F819
:10038000DDF804E0DDE9022304B07047704700BFE8
:10039000032A70B412D940EA0105AD0704460B46A2
:1003A00020D11946204653F8045B54F8046BAE4242
:1003B00018D1043A032A20461946F2D8541E72B1C5
:1003C00003780A789A4208BF241806D00CE010F887
:1003D000013F11F8012F934206D1A042F7D100202E
:1003E00070BC7047541EEBE7981A70BC704700BF92
:1003F000844641EA000313F003036DD1403A41D330
:1004000051F8043B40F8043B51F8043B40F8043BEE
:1004100051F8043B40F8043B51F8043B40F8043BDE
:1004200051F8043B40F8043B51F8043B40F8043BCE
:1004300051F8043B40F8043B51F8043B40F8043BBE
:1004400051F8043B40F8043B51F8043B40F8043BAE
:1004500051F8043B40F8043B51F8043B40F8043B9E
:1004600051F8043B40F8043B51F8043B40F8043B8E
:1004700051F8043B40F8043B51F8043B40F8043B7E
:10048000403ABDD2303211D351F8043B40F8043B1E
:1004900051F8043B40F8043B51F8043B40F8043B5E
:1004A00051F8043B40F8043B103AEDD20C3205D32E
:1004B00051F8043B40F8043B043AF9D2043208D026
:1004C000D2071CBF11F8013B00F8013B01D30B8898
:1004D00003806046704700BF082A13D38B078DD076
:1004E00010F003038AD0C3F10403D21ADB071CBF48
:1004F00011F8013B00F8013B80D331F8023B20F8B2
:10050000023B7BE7043AD9D3013A11F8013B00F8EA
:10051000013BF9D20B7803704B7843708B78837072
:1005200060467047F0B4860746D0541E002A3CD07F
:10053000CAB2034602E014F1FF3436D303F8012BAC
:100540009D07F8D1032C29D9CDB245EA05250F2CFA
:1005500045EA054533D9A4F11006360903F1200711
:1005600007EB061703F1100242E9045542E9025570
:100570001032BA42F8D1721C14F00C0F03EB0212C5
:1005800004F00F0613D0331F23F003030433134486
:1005900042F8045B9342FBD106F003042CB1C9B2CC
:1005A0001C4403F8011B9C42FBD1F0BC704734464D
:1005B0001346002CF3D1F8E714460346C2E71A4667
:1005C0002646E0E70CB470B59CB020AC0B4E54F856
:1005D000042B0291234606916FF0004502A9019475
:1005E0000795CDE9045600F063FA029B00221A70C9
:1005F0001CB0BDE8704002B0704700BF0802FFFFAA
:100600000EB430B59CB01FAB0C4C0D4D53F8042B01
:100610000193014602910691206802A96FF00044FF
:100620000794CDE9044500F043FA029B00221A70BA
:100630001CB0BDE8304003B0704700BF000C002084
:100640000802FFFF000000000000000000000000A2
:10065000000000000000000000000000000000009A
:10066000000000000000000000000000000000008A
:10067000000000000000000000000000000000007A
:1006800090F800F06DE9024520F007016FF0000CD2
:1006900010F0070491F820F040F049804FF000047A
:1006A0006FF00700D1E9002391F840F000F1080055
:1006B00082FA4CF2A4FA8CF283FA4CF3A2FA8CF38D
:1006C0004BBBD1E9022382FA4CF200F10800A4FAF4
:1006D0008CF283FA4CF3A2FA8CF3E3B9D1E9042348
:1006E00082FA4CF200F10800A4FA8CF283FA4CF37F
:1006F000A2FA8CF37BB9D1E9062301F1200182FA39
:100700004CF200F10800A4FA8CF283FA4CF3A2FA3E
:100710008CF3002BC6D0002A04BF04301A4612BA4C
:10072000B2FA82F2FDE8024500EBD2007047D1E94F
:10073000002304F00305C4F100004FEAC50514F0DE
:10074000040F91F840F00CFA05F562EA05021CBFAF
:1007500063EA050362464FF00004A9E7704700BF53
:10076000704700BF704700BF704700BF704700BFB1
:10077000704700BF0120704701207047704700BFDD
:10078000704700BF00293CD038B551F8043C0C1F1D
:10079000002BB8BFE418054600F062FD234B1A6831
:1007A0002AB1A2420DD921686018824223D062602A
:1007B00028461C60BDE8384000F058BDA34203D86D
:1007C0001A465368002BF9D111685018A04219D06D
:1007D00024D821686018834206D06360546028469C
:1007E000BDE8384000F042BDD3E900030144636036
:1007F00021605460F3E7D2E90002014462602160A5
:10080000D6E7704720680144501883421160E6D152
:10081000D3E90003014453601160E0E70C232B602F
:100820002846BDE8384000F021BD00BF900C0020F4
:10083000F8B5CD1C25F0030508350C2D38BF0C2567
:10084000002D064633DBA94231D82A4F00F008FDBF
:100850003A6852B113685B1B04D43FE023685B1B0A
:1008600029D522465468002CF8D1796800293BD05C
:100870002946304605F05FFE431C28D0C41C24F0F6
:100880000304A04205D0211A304605F054FE013081
:100890001DD02560304600F0E9FC04F10B0020F08B
:1008A0000700231DC21A01D01B1AA350F8BD0C2249
:1008B00032600020F8BD0B2B05D8A242636811D02E
:1008C0005360E7E7144623601C442560E2E70C23ED
:1008D0003046336000F0CAFC0020F8BD0B2BF1D885
:1008E000536814463B60D5E7304605F024FE786037
:1008F000BEE700BF900C00202DE9F0478E681D4632
:10090000AE420C460B68174636D88046888910F4EC
:10091000906F0ED1354618462A46394600F038FC0D
:10092000A2682368961B2B44A66023600020BDE8C4
:10093000F087D1E9041606EB4606A3EB010906EBA6
:10094000D6766B1C76104B44B342324684BF1E46AB
:100950003246430512D511464046FFF769FF8246ED
:1009600000B34A462169FFF743FDA38923F490634E
:1009700043F08003A38106E02E46CCE7404600F01A
:100980007BFC824650B1A6EB09020AEB09036661C3
:10099000C4F810A02360A2602E46BCE7216940463F
:1009A000FFF7F0FE0C23C8F80030A38943F04003A2
:1009B000A3814FF0FF30BAE72DE9F04F936883B081
:1009C0009046002B6DD017688D6882460C460868EB
:1009D000083743E0A38913F4906F2ED0D4E90415AF
:1009E00005EB4505A0EB010B05EBD5750BEB060000
:1009F0006D100130A8422A4684BF05462A465B0591
:100A000036D511465046FFF713FF00283AD05A4614
:100A100021690190FFF7ECFCA289019B22F490620E
:100A200042F08002A281A5EB0B0203EB0B00656193
:100A300023612060A2603546B3465A46494600F01D
:100A4000A7FBD8F80830A2682068551B58449E1BA5
:100A5000A5602060C8F808601EB3083757E9029601
:100A6000AB46002EF9D0AE42B4D23546B346E4E7E9
:100A7000504600F001FC03460028D4D121695046BD
:100A8000FFF780FE0C23CAF80030A389002243F050
:100A900040034FF0FF30A381C8E9012203B0BDE855
:100AA000F08F0020C8F8040003B0BDE8F08F00BF4D
:100AB0002DE9F04F90468A899FB014068B4602902C
:100AC00003D50A69002A00F00B81059330238DF8C5
:100AD000323098F800308E4E002120220B918DF894
:100AE00031200127002B00F08480252B00F0F680B8
:100AF000454603E0252B00F0868025466B786C1C6C
:100B0000002BF7D1B4EB080A73D04246534659463E
:100B10000298FFF7F1FE01306BD00B9B6A785344CB
:100B20000B93002A65D000234FF0FF320134069367
:100B3000CDE908338DF85B301C93079205E0069AE7
:100B400007FA03F313432C4606932546052215F8AE
:100B5000011B304600F0CCFAAA46831B0028EED1D8
:100B6000069BD90644BF20228DF85B2021781A0706
:100B700044BF2B228DF85B202A2948D1059A1168A1
:100B80000432002905927EDB09916178A51C2E298B
:100B900056D0604C0322204600F0AAFA002868D004
:100BA000001B069B402404FA00F00343069305F162
:100BB0000108297858488DF83010062200F098FA7C
:100BC000002866D0554B002B56D005AB00935A46F3
:100BD000534B029806A9AFF300808146B9F1FF3F5D
:100BE00007D00B9B4B440B9398F80030002B7FF4FD
:100BF0007CAFBBF80C305B0654BF0B984FF0FF3056
:100C00001FB0BDE8F08FB4EB080A8CD07DE7A1F1EE
:100C10003002092A88BFA246B9D8099B01E02C46B8
:100C20000135297803EB830302EB4303A1F1300282
:100C3000092AAA46F3D92E2904F102050993A8D15D
:100C40009AF801102A292ED1059B9AF802101A68E9
:100C500007920433002A05930AF103050AF10203FF
:100C600037DB2C4C032220469A4600F041FA00283C
:100C700096D1A84655469CE7059B073323F007030A
:100C800008330593ADE7494243F002030991069307
:100C90007BE705AB00935A46214B029806A900F06A
:100CA000D7F881469AE7A1F130020023092A079379
:100CB00001D923E05546697803EB830302EB430334
:100CC000A1F13002092A05F1010AF3D9023507938F
:100CD0005FE74FF0FF329A4607925AE7444622E711
:100CE00040210393FFF7A4FD039BCBF80000CBF852
:100CF000100030B14022CBF81420E6E6AA460135B8
:100D000047E7029A0C2313604FF0FF3078E700BFEB
:100D1000DC870008E4870008E8870008000000007E
:100D2000F90800082DE9F0470C4691460A698968E0
:100D3000DDF820808A42B8BF0A46C9F8002094F83E
:100D4000431006461F4611B10132C9F8002023683E
:100D500099065CD5D9F800200232C9F80020236832
:100D600013F0060F19461DD1E1688A1A002AD8BF70
:100D7000194617DD04F1190A002505E0E368D9F8E2
:100D800000209B1AAB420CDD012352463946304607
:100D9000C047013005F10105F0D14FF0FF30BDE84B
:100DA000F087216894F84330003318BF01238A0686
:100DB0000AD5E1185A1C302081F84300224494F8E7
:100DC000451082F84310023304F14302394630469D
:100DD000C0470130E1D02368A268216903F006030F
:100DE000042B1DD08A4226DD4FF00009521A91448F
:100DF0001A34002501E04D451DDA0123224639460B
:100E00003046C047013005F10105F4D1C5E713F0C4
:100E1000060F13D094F84330003318BF0123D3E7F3
:100E2000D9F80000E3688A42A3EB000323EAE379E0
:100E3000DCDC002BDCDC0020BDE8F087E168D9F8C1
:100E400000208A1A002AD8BF194693DCAAE700BFFF
:100E50002DE9F0430C46097E85B06E2906461746FB
:100E60000C98984604F1430E6DD039D9732900F0DF
:100E7000F68044D9752900F00481782940F0118169
:100E800078232268DFF858C284F8453001681506D7
:100E900051F8043B016040F1A180D10744BF42F00A
:100EA00020022260002B00F093801022002184F8A1
:100EB00043106068A0600028C0F2C880216821F05B
:100EC00004012160002B40F0A380002840F0C08086
:100ED0007546082A00F0AC80AEEB0503236141E0C3
:100EE000632900F0E5801AD8002938D0582940F04D
:100EF000D88084F845102268DFF8E8C1C6E76F297A
:100F000000F0BF80702940F0CC802268DFF8D0C1AB
:100F100042F020027823226084F84530B6E7642945
:100F200002D0692940F0BD8022680368110603F1F0
:100F3000040557D5196805600B46002959DBDFF811
:100F4000A4C10A22B5E70368226861691D1D056016
:100F500015061B6802D4500600F1BD8019600023FD
:100F600075462361CDF800803B4603AA21463046F2
:100F7000FFF7D8FE013020D02A4623693946304693
:100F8000C047013019D022680398E368920719D549
:100F90001A1A002A16DD04F11909002504E0E36895
:100FA00003981A1AAA420DDD01234A4639463046F3
:100FB000C047013005F10105F1D14FF0FF3005B018
:100FC000BDE8F0839842B8BF184605B0BDE8F0838D
:100FD000226822F020022260102267E7500648BFF4
:100FE0009BB25AE75106A5D5B3F900300560194602
:100FF000A3E76168A1602D200029C3F1000384F8F4
:10100000430002DB22F004022260DFF8D8C00A228B
:10101000754600E00B46B3FBF2F102FB1130934240
:101020001CF8000005F8010DF4D2082A7FF454AF33
:101030002368DB077FF550AF626823699A423FF768
:101040004BAF302305F8013C013D45E7002BDFD1D4
:101050009CF8003084F8423004F1420539E7036817
:101060006268191D01601D680021284600F040F8E3
:10107000002832D0401B60602061002384F8433098
:1010800070E72268036812F0800F03F104051AD09C
:101090001B6805606F290CBF08220A22DFF844C0D4
:1010A00004E7012384F84210236104F14205E4E7D8
:1010B00003681A68191D0123016004F1420584F8D0
:1010C00042202361D9E712F0400F0DBF1B68056075
:1010D0001B880560DEE7198041E76068CCE700BF48
:1010E00004880008F08700080000000000000000ED
:1010F00001F0FF01102A2BDB10F0070F08D010F8C9
:10110000013B013A8B422DD010F0070F42B3F6D1CC
:10111000F0B441EA012141EA014122F007047FF0E5
:1011200000070023F0E80256083C85EA010586EA3C
:10113000010685FA47F5A3FA87F586FA47F6A5FA78
:1011400087F68EB9EED1F0BC01F0FF0102F0070284
:1011500032B110F8013B013A83EA010313B1F8D12F
:101160000020704701387047002D06BF3546033810
:10117000073815F0010F07D1013015F4807F02BF49
:10118000013015F4C03F0130F0BC0138704700BF9A
:101190008842F0B40DD98B1883420AD9841832B131
:1011A000224613F8014D02F8014D9942F9D1F0BCE5
:1011B00070470F2A0ED80346541E002AF7D0013478
:1011C0000C44013B11F8012B03F8012FA142F9D186
:1011D000F0BC704740EA01039B073BD1A2F1100726
:1011E0003F0901F1200606EB071601F1100300F19B
:1011F000100453F8105C44F8105C53F80C5C44F88D
:101200000C5C53F8085C44F8085C53F8045C44F840
:10121000045C1033B34204F11004EAD17B1C1B01BF
:1012200012F00C0F194402F00F05034415D0043DD1
:10123000AD0803EB850C1C1F0E4656F8047B44F8E2
:10124000047F6445F9D10135AD002B44294402F0F7
:101250000302B1E7541E0346B1E72A46ACE700BFDC
:101260000148FFF785BA00BF681500200148FFF765
:1012700087BA00BF6815002009B3F8B51446CAB193
:1012800006460D4600F01EF8A04202D32F4638460F
:10129000F8BD21463046FFF7CBFA07460028F6D0C6
:1012A00022462946FFF7A4F830462946FFF76AFA96
:1012B0003846F8BD2746FFF765FA3846F8BD1146AF
:1012C000FFF7B6BA51F8043C181F002BBCBF0B58EF
:1012D000C018704710B5054C227832B9044B13B1D1
:1012E0000448AFF300800123237010BD980C002048
:1012F000000000002088000808B5034B1BB103491B
:101300000348AFF3008008BD000000009C0C0020E3
:101310002088000820224FF40071014804F083B8AF
:101320000004024008B500F09BFC282812D81B4A94
:10133000107805230130B0FBF3F303EB8303C01AED
:10134000174B10704FF41F71C0F1040001FB003007
:1013500000F03CFE00F084FC282808D900F080FC56
:101360003B2804D84FF41F710E4800F02FFE00F008
:1013700077FC3B2810D90C4B1878013000F00100A5
:1013800018700A4BC0F101004FF41F7101FB0030CF
:10139000BDE8084000F01ABE08BD00BFBC0C00202C
:1013A0006C6800088C760008BD0C002008790008E5
:1013B0000020704738B500F053FC2E4C002835D083
:1013C0002D4D00F02BFE286802F032FC962804D93F
:1013D00002F004FC2860FFF7A5FF02F0FFFB20608D
:1013E0000721002000F02AFD00F03AFC23490246C4
:1013F0002348FFF705F90021214800F0D7FD062119
:101400000F2000F01BFD00211E4800F0CFFD07213A
:101410000F2000F013FD1C4B186800F005F90021A7
:10142000032824D8DFE800F0181D1F21206802F0EF
:10143000FFFB4EF66023984202D900F0BFFECFE7D3
:101440000D4C206802F0F4FB9628C9D902F0C6FBC7
:101450002060FFF767FFC3E70C48BDE8384000F0A5
:10146000A5BD0B48F9E70B48F7E70B48F5E70B4834
:10147000F3E700BFB40C0020B80C00205876000839
:10148000D80E002062760008B00D002069760008B2
:1014900070760008777600087E760008857600086A
:1014A00003230222012100F059B808B545F629535B
:1014B000984206D1887818B1002000F044F8002046
:1014C00008BD0120FCE70120704708B5FFF7EDFFDC
:1014D00008BD704708B5FFF7FCFF08BD13B502ABA8
:1014E00003E903000F4B1B78B3B99DF80230009855
:1014F00073B16AB102F020F904460146009802F087
:10150000D3F80099204602B0BDE8104000F0BCB806
:1015100002F0F0F80446F4E7009802F00DF90099A3
:10152000F1E700BF5E0D002003460A460068998877
:10153000FFF7D4BF10B500210446FFF7F5FF2146A1
:10154000FFF7C8FF10BD10B501248440E0B202F0DF
:1015500056FA2046BDE8104002F039B810B5012413
:1015600004FA02F204FA01F1114304FA03F331EA36
:1015700000020CBF1843984310BD08B502F09EFB53
:1015800002F02DFA08B902F0AFFABDE8084000F009
:101590003ABA08B500F0C0FBBDE8084000F038BA20
:1015A000704708B501F09BFCFFF7FAFF40F6C41046
:1015B00003F09FF8BDE8084002F040BB38B50121B8
:1015C0000446FFF7B1FFA37805460BB100F074FBAA
:1015D00021462846FFF779FF08B9002038BD21468B
:1015E000284600F08BFE0028F7D02146284600F060
:1015F000D5FE0028F1D02146284600F0DBFF002868
:10160000EBD0A37833B1B5F5B84F07D045F6DF433B
:101610009D4206D02046FFF756FFDFE7FFF7C1FFE8
:10162000DBE702F061FAD8E7030C002B16BF18467F
:1016300000231023020A1CBF1046083302091EBFF4
:1016400004331046DBB282081EBF02331046DBB201
:1016500042081CBF0133DBB218467047704708B51B
:10166000FFF7FCFF08BD0120704708B5FFF7FBFF3F
:1016700008BD10B50446FFF7F2FF2046FFF7F5FF5F
:1016800010BD00207047704730225043C1F307233C
:101690000C2202FB030353FA81F3034A32F81300CE
:1016A00082B002B0704700BFD8740008014B33F815
:1016B00010007047327E000813B5ADF80410019990
:1016C000FFF7E2FF00F0C6F8B0F5A04F044629D2BC
:1016D000B0F5804F80F08580DF2813D8C02872D203
:1016E000A7280BD8A5285FD2012804D003B23BB1AC
:1016F000032898BF0024204602B010BDBE285AD946
:101700000024F8E7B0F5005F06D2B0F5807F7CD208
:10171000E82828BF0024EEE7B0F5405F59D2C0F3B7
:101720000B0052E0B0F5AA4F19D2B0F5A84FC3B2E2
:1017300077D2B0F5A44F07D2B0F5A24F56D34AF2F4
:10174000F10040EA0324D6E7B0F5A64F5FD298082F
:10175000012403F003039C4044EA401453E0B0F535
:10176000B24F0ED2B0F5B04F60D2B0F5AC4FC7D289
:10177000C0B200F0F1F8040204F4F85444F4005448
:10178000B9E7B0F5B44F56D3A0F5C0439BB2B3F55B
:10179000005FB5D2C0F3042000F0DEF8000200F4D0
:1017A000F850E4B20443E9E75B34E4B2274B1C5D34
:1017B00044F480449FE75834E4B2254B33F8144096
:1017C00044F4884497E7C03880B2FFF76FFF0446BF
:1017D00091E7C3B202054CBF43F4484443F440448C
:1017E00089E7C0F30B0444F4204484E7C3F3810485
:1017F000C0F30110640144EA002403F00303012054
:1018000000FA03F31C4344F40C44A4B273E79808B1
:10181000012403F003039C4044EA401444F40A44C6
:10182000F3E74AF2F40444EA032464E74AF2F000DE
:1018300040EA0424E9E700F00F0000F08DF8C4F35B
:10184000031440EA042444F41044DEE7007E000858
:10185000047E0008822825D00CD8312863D004D813
:10186000292859D02A2865D0704735284DD03928E5
:1018700018D07047E32830D004D8E02819D0E228E7
:1018800026D07047E62832D0E72835D0E42832D178
:10189000304B5A7891072ED51B7813F0100F08BFE4
:1018A000E72012E02B4B1B7813F0030F18BFE0204A
:1018B0007047284A1378D90743D4527812F0010FA1
:1018C00019D013F0100F08BFE32018BF0020704795
:1018D000204B1B7813F0040FF2E71E4A13785907C8
:1018E00031D45278D20730D413F0100FEDE7194BF2
:1018F0001B781A07D1D47047164A1378190726D4D3
:1019000052789207F0D5E420F5E7124B1B7813F0DC
:10191000200F18BF292070470E4B1B7813F0200FA3
:1019200018BF352070470B4B1B7813F0400F18BFC2
:101930002A207047074B1B7813F0400F18BF312047
:10194000704739207047E2207047E0207047E6205A
:10195000704700BFFC120020294B1A78510707D5A9
:1019600000F01801082927D100F0F70040F004002A
:10197000110707D500F01801182926D100F0E7005B
:1019800040F014005B78D90707D500F0180108294A
:1019900024D100F0F70040F00100990707D500F0CE
:1019A0001803182B23D100F0E70040F01100D306F4
:1019B00048BF00F0E700704700F01401042904BF9D
:1019C00000F0FB0040F00800D2E700F014011429F9
:1019D00004BF00F0EB0040F01800D3E700F0110165
:1019E000012904BF00F0FE0040F00800D5E700F038
:1019F0001103112B04BF00F0EE0040F01800D6E7F1
:101A0000FC120020704708B5FFF7FCFF08BD7047C7
:101A100008B5FFF7FCFF08BD014B33F81000704715
:101A2000EA0E00207047012002F063BE00BF00BF35
:101A300000BF00BF00BF00BF00BF00BF00BF00BFAE
:101A400000BF00BF00BF00BF00BF00BF00BF00BF9E
:101A500000BF00BF00BF704708B5FFF7E4FF08BD37
:101A600008B5202282F31188012100F00F0399406C
:101A700020F00F0003F0D7FC002383F3118808BD8A
:101A800038B51348134DFFF7EBFF1348FFF7E8FF96
:101A90001248FFF7E5FF1248FFF7E2FF0C2455F864
:101AA000040B013CFFF7DCFF14F0FF04F7D10D4BF2
:101AB0000D4A1C800420148054805C8094809C809B
:101AC000D480DC8000F076F8BDE83840FFF755BDE3
:101AD00005000240347E000804000240030002407A
:101AE00002000240EA0E0020E20E00202DE9F74F2E
:101AF0000025DFF8BC802B4F2E464FF0200A4FF018
:101B00000109AB4658F8044B8AF3118824F00F03FF
:101B100004F00F0409FA04F4214618460122019347
:101B200003F081FC019BA4B25C838BF31188FFF767
:101B30007DFF00211C480C4650F8043B23F00F02A7
:101B400003F00F03126922FA03F3DB075ABF09FA05
:101B500001F213B20023013123430C299CB2EBD1D3
:101B600058F8040CFFF77CFF032D01D0FFF774FF3A
:101B70003B880135A3421ABF3C8001230023042D7A
:101B800046EA030607F10207BCD133462A46074955
:101B9000044800F011F8FFF7FCFC304603B0BDE844
:101BA000F08F00BFE20E0020347E0008EA0E002015
:101BB000647E000870470000F8B506460F461546DB
:101BC0000E4C2BB10123237002F026F80C4B188029
:101BD00023782BB10A4B188802F023F805280AD87D
:101BE000F8BD36F8132027F8132001339D42F8DCA6
:101BF00000232370F4E70023F8E700BFBE0C0020A9
:101C0000C00C0020014B185C704700BFC40C0020C2
:101C1000034BC218185C527840EA0220704700BF9C
:101C2000C40C0020024B19541844090A4170704733
:101C3000C40C0020044B195418440B0A43700B0CBD
:101C4000090E8370C1707047C40C0020014B1954F9
:101C5000704700BFC40C0020FFF7E4BFFFF7EABFE6
:101C6000014B1878704700BFE80C0020A0F5C04376
:101C7000B3F5005F09D3A0F58043B3F5805F04D3CB
:101C8000A0F58073B3F5F85F0BD2C0B2031F9BB20F
:101C9000232B0BD92B3880B20D288CBF00200120BC
:101CA0007047B0F5807F28BF0020EFE70120704724
:101CB00008B5FFF7DBFF08BD10B5FFF7F9FF18B354
:101CC000124C2088E8B101F0ACFF1149DFED116A38
:101CD0000A784EF66023B3FBF0F00523B0FBF3F077
:101CE000C0B2801A07EE900A07EE102AF8EEE77AE3
:101CF000B8EEC77AA7EEA67AFCEEC77A17EE903A4E
:101D00000B7001F089FF208010BD00BFEA0C00209D
:101D1000E80C0020A779473D10B50F4C208801F052
:101D200080FFB0F57A7F16D90C4ADFED0D6A137883
:101D3000594207EE101A07EE903AB8EEC77AF8EE5D
:101D4000E77AE7EE267AFCEEE77A17EE903A137020
:101D500001F062FF208010BDEA0C0020E80C00209A
:101D6000A779473D08B5074B4FF48062184600211C
:101D7000FEF7D8FB044A054B10604FF6FF721A803D
:101D800008BD00BFF40E0020F8120020EE0C002069
:101D900010B5FFF70DFB1F4C1F4B207010F0010F0B
:101DA0000CBF802240221A7000F032FC64230D2206
:101DB0001A49782000F052FC08B1002010BD2378A9
:101DC00013F0020F4FF003024FF064031FD11449C8
:101DD000782000F043FC0028EFD164230D22114944
:101DE000782000F03BFC04460028E6D101F0F6FE26
:101DF0000D4B00F56A4060301860FFF7B3FF0B4BE6
:101E0000012018700A4B18700A4B1C70D6E70A495B
:101E1000DEE700BFF10C0020F20C00207E7E0008FF
:101E2000777E00088B7E0008F4120020F00C002062
:101E3000EC0C0020F30C0020747E0008084B00EB33
:101E400040001B78400003FB010189B2B1F5806FAF
:101E5000044B28BF00211944034B1960704700BF91
:101E6000F20C0020F40E0020F81200200C480D495E
:101E7000026810B5531A0C4A063312789BB2B3FBB2
:101E8000F2F402FB1434121BD2B2052A9CBF9B1839
:101E90009BB2B3F5806F28BF00230B44036010BDD5
:101EA000F8120020F40E0020F20C00200A2838B5A9
:101EB00004D10120BDE8384000F04AB80D2801D116
:101EC0000020F7E71D4A1E4C13681D6825609D8899
:101ED000A58004065DBF1B4C00EB400004EB4000F6
:101EE00000205DBF04681C6080881860988051B92C
:101EF0001468134806222146FEF74AFA60B9BDE885
:101F00003840FFF7B3BF1368981D9842F0D0197896
:101F1000C94303F8011BF8E70B4B0C49E41AC4F35F
:101F20008913A4B201220888053402FA03F3A40934
:101F3000034302FA04F41C430C80E0E7F81200208B
:101F4000F40C0020987E0008F40E0020EE0C002017
:101F500070B5134E134B3168134C1A78091B8DB2B0
:101F6000B5FBF2F302FB1353D31ADBB260B10624C4
:101F7000B3FBF4F4631EDCB2FF2C00D170BD002172
:101F80002020FFF793FFF5E71D44B5F5806FAABF4A
:101F9000034689B21946194421443160EEE700BF77
:101FA000F8120020F20C0020F40E002070B5044658
:101FB0000E46FEF765FB2518AC4200D370BD3146D6
:101FC00014F8010BFFF772FFF6E70000104BF0B5B5
:101FD0001A68104C121B93B2CD18B5F5806FC4BFB0
:101FE000C3F5806189B20C4D194401268B4200DB98
:101FF000F0BDC25CE75C974206D02F88E2549A0994
:1020000006FA02F23A432A8001339BB2EEE700BFA0
:10201000F8120020F40E0020EE0C00200D4B1B786F
:1020200010B50D4C0BB9207810BD01F0D7FD0B4B4E
:1020300000F56A40603018602378002BF3D16423E8
:1020400002220749782000F009FB0028EBD1012388
:102050002370E8E7F00C0020EC0C0020F4120020C4
:102060007C7E00082DE9F04F4B4B1B7885B0002B90
:102070003DD04A4B1A88002A39D0494B1B78002B97
:1020800035D1DCB242FA04F1C90703F10103F8D5F6
:10209000444D2B7813F00102434B2BD1A00100F0EB
:1020A00040019970C0093F315871D9709A713E4909
:1020B00064230722782000F0D1FA0646B8B92B78BD
:1020C000DB074FEA84171ED4384A642300933A444E
:1020D00040231946782000F0F1FA40B9FFF79EFF3F
:1020E0002E4A0123A340148824EA0304148005B077
:1020F000BDE8F08FE200D2B29A7000210732DA70A8
:1021000059710722D2E7014640222948DFF8A4B0DE
:10211000DFF8A4A0FEF706FA30461BF8013B234A7D
:102120003B4413441AF8012B0393214B013A1A4400
:1021300000250123C5F1070803FA05F912F801EF9C
:102140005FFA88F85FFA89F90026039B995DA8EB8E
:10215000060309EA010103F0070301FA03FC5B42ED
:1021600003F0070321FA03F34CEA030301364EEAB6
:102170000303082E5FFA83FEE7D10135082D82F8AC
:1021800000E0D6D10130C0B20828C6D16423009344
:10219000074A40239DE700BFF00C0020EE0C002012
:1021A000F30C0020F10C0020640C0020F40E002041
:1021B000FA0C0020D8830008E083000838B50B4BE8
:1021C0000B4C1B782078254613B980F0010008E0FD
:1021D00048B1642302220749782000F03FFA08B191
:1021E000207838BD20702878EFE700BFF00C002081
:1021F000EC0C00207A7E000808B50D4B1B78B3B1BB
:1022000000210846FFF71AFEFFF7D4F8FFF72AFF70
:10221000084B1B785BB101F0E1FC074B1B68C01A4F
:10222000064B984203D8BDE80840FFF7C7BF08BD7A
:10223000F00C0020EC0C0020F4120020FEFFFF7FC9
:10224000F8B5144682789DF818701D46294B92B156
:102250001C7001F0E1FC284B188004F12003DBB274
:10226000072B45D804F007040120A040C0B2BDE808
:10227000F84000F002BC1E78A6422FD11E4B1888F1
:1022800001F0CFFCB0F5967F28D2AE4205F12004D4
:1022900015D006F12003DBB2072B06D806F007069F
:1022A0000120B040C0B200F0F1FBE3B2072B06D82A
:1022B00005F0070301209840C0B200F0DEFB38466D
:1022C000E4B200F0D4FB072C12D805F0070501207A
:1022D000A840C0B2BDE8F84000F0D8BB04F120032C
:1022E000DBB2072B04D804F007040120A040F0E77C
:1022F000F8BD00BF3A0D00203C0D002013B545F697
:10230000F44304469C42084626D011D845F6D943EA
:102310009C421CD045F6DA439C4237D045F6D84360
:102320009C420ED126230093E1231A4621461EE04B
:1023300045F6F6439C421FD013D345F6F7439C4223
:102340001FD0807830B3144B00221A7012E027237C
:102350000093E523E522E9E726230093E022E12329
:10236000E4E727230093E422E52345F6F541FFF750
:1023700067FF002002B010BD26230093E222E12374
:10238000D4E727230093E622E523CFE72823009311
:102390000123DFE70120EDE73A0D002038B50546BF
:1023A0008878002800F0018145F602439D422BD336
:1023B00045F615439D4204D9A5F5B9437B3B082B4F
:1023C00022D801F020FB7A4C45F610439D42208034
:1023D00000F0B98039D845F608439D4200F08F805F
:1023E0001CD845F604439D4279D00ED845F60243E9
:1023F0009D426BD045F603439D426CD0208801F08E
:102400000EFB00F06CFD002038BD45F606439D42F2
:1024100071D068D9237843F020035AE045F60C4385
:102420009D427CD008D845F60A439D4271D06AD9B6
:1024300023786FF300034CE045F60E439D4276D0BF
:1024400071D923786FF3041343E045F6FC439D42B2
:102450004DD021D845F613439D427CD00DD845F68A
:1024600011439D4273D045F612439D42C6D100F000
:1024700036FD23786FF3C7132BE045F615439D42D5
:1024800071D0C0F0848045F6FB439D42B6D163789D
:1024900043F001036370B1E7B5F5BA4F5FD00AD8D6
:1024A00045F6FE439D424AD045D9637823F00303A5
:1024B00043F00303EEE745F602539D4271D05DD32E
:1024C00045F603539D4299D100206BE0237843F0F9
:1024D0000103237092E7237843F00203F9E723789E
:1024E00043F00403F5E7237843F00803F1E763784A
:1024F00043F00203CEE7237843F01003E9E72378A3
:1025000043F04003E5E700F0EAFC237843F0800362
:10251000DFE7237823F00C0343F00C03D9E723789B
:102520006FF34103D5E723786FF38203D1E7237874
:102530006FF3C303CDE763786FF30003AAE7637813
:102540006FF34103A6E723786FF34513C1E72378C0
:102550006FF38613BDE7237823F00C03B9E76378A4
:1025600023F0030396E72378C3F3800282F001028D
:10257000D2B262F3820362F3C303AAE76378DA4359
:1025800002F0010262F3000362F3410382E700F00C
:10259000A6FC2378C3F3C01282F0010262F3C713D2
:1025A00097E7012001F0A2FA28E701202CE700BFFD
:1025B000FC12002045F61643984210B50C461BD17C
:1025C00001F03CF9A2780D4B72B100F0AA0000288E
:1025D00015BF01220022352029201A7001F0FEF8D3
:1025E00001F098F9002010BD1B78002B14BF352096
:1025F000292001F0FBF8F3E70120F4E73E0D00206D
:1026000028B120280CBF6FF001004FF0FF30704759
:10261000104B10B51C78E4B901221A7040212246F3
:102620000D4802F000FF224680210B4802F0FBFE1D
:10263000642002F05EF840F206224021064802F0D3
:10264000F2FE40F2062280210348BDE8104002F06D
:10265000EABE10BD400D0020000402402DE9FF41FC
:10266000134D144C0E4620701349284617469846C1
:1026700002F0F7F842F2107C40F2E7300021E8FB6C
:102680000C014FF47A720023FDF768FE2478029063
:1026900064080023CDE9003332463B4621462846F4
:1026A00002F0EDF804B0BDE8F041FFF7A9BF00BFAC
:1026B000A41400203F0D0020E88300082DE9F04716
:1026C000204C84B09A4604AF207088461E481F49AB
:1026D000914602F0C6F80AF108036A46DB08A2EB4D
:1026E000C3039D460AF1010604AD00214B1CC9B28B
:1026F000514520D3B7F820C085F8008042F2107E03
:1027000040F2E7300021ECFB0E014FF47A72002317
:10271000FDF724FE2478029064080023CDE90033FD
:102720002A4633462146084802F0A9F8FFF768FF19
:10273000BD46BDE8F0876A1819F8011051701946B6
:10274000D4E700BF3F0D0020A4140020E883000858
:10275000014B1860704700BF440D0020024B186801
:1027600008B1036818477047440D0020024B1B68EE
:102770000BB15B6818477047440D0020054B198862
:10278000814205D01880044B1B680BB1DB681847E9
:10279000704700BF4A0D0020440D0020054B1988EA
:1027A000814205D01880044B1B680BB11B69184788
:1027B000704700BF480D0020440D002008B501F00F
:1027C0000DFA024B1860024B186008BD4C0D00203A
:1027D000500D00207047704708B5FFF7FCFF08BD9B
:1027E000704708B5FFF7FCFF08BD000008B50448B6
:1027F00001F05CFAFFF7EEFFFFF7EEFF08BD00BF48
:10280000D13900080120704708B5FFF7FBFF08BD6C
:102810007047704708B501F0DFF9FFF731F9002084
:10282000FFF7B6FA01F05EFAFFF7DBFF08BD000024
:102830002DE9F04F85B0FFF7EBFFFFF7EAFFFFF759
:1028400055F9064608B1FFF7B9FFDFF8E0A000250B
:1028500057465FFA85F84046FFF7DEF83AF8024B34
:102860008442834644D02F4B1B789B0701D5FFF74A
:10287000D9F884EA0B04A3B20022012423425FFAB0
:1028800082F930D0FFF7C0FFA8B11BEA040F14BFD4
:10289000012300238DF802308DF800908DF801801F
:1028A00001F0BAF940F00100ADF804006B4693E87E
:1028B000030000F03DF837F815305C4027F815406C
:1028C000FFF79AFC0EB1FFF7A9FB174CFFF746FF85
:1028D0002378834222D0FFF741FF207005B0BDE886
:1028E000F04FFEF7C6BE013264000C2AA4B2C5D177
:1028F0000135042DADD14FF6FF73ADF8083000233C
:102900008DF80A3001F088F940F00100ADF80C00B4
:1029100004AB13E9030000F00BF8D1E705B0BDE804
:10292000F08F00BFDF0D0020540D0020560D002059
:102930001FB56C4684E803009DF802300BB100F02F
:10294000A9FF0023ADF80E3094E8030004AB029019
:10295000ADF80C1013E9030004B0BDE8104000F01E
:102960005FBD008800F00ABF10B50446002838D0CB
:10297000031FDBB2A02B11D81A4B0146186801F0D7
:10298000C7F820B1204600F031FF00F0C3FF204619
:1029900000F024FFBDE8104000F0BCBF00F12003B0
:1029A000DBB2072B07D800F007040120A040C0B21B
:1029B00000F04AFFEEE700F15B03DBB2022B05D823
:1029C000094ABDE81040D05CFFF7D8BE5834E4B2E5
:1029D000162C06D8054B33F81400BDE81040FFF75D
:1029E000DDBE10BD6C0C0020F4830008F8830008E5
:1029F00008B5034648B3021FD2B2A02A05D800F09A
:102A0000F5FEBDE8084000F085BF00F12002D2B21B
:102A1000072A07D800F0070301209840C0B200F051
:102A20001BFFEEE700F15B02D2B2022A04D80020BD
:102A3000BDE80840FFF7A2BE5833DBB2162B04D81E
:102A40000020BDE80840FFF7A9BE08BD38B505461F
:102A50000C46FFF789FF24B92846BDE83840FFF748
:102A6000C7BF0A20013C01F044FEA4B2F3E73928B5
:102A70000CBF50210021FFF7E9BF08B528B100F0D5
:102A8000E3FEBDE8084000F045BF08BD08B528B129
:102A900000F0E2FEBDE8084000F03CBF08BD2DE9B3
:102AA000F04790F80690857807460C4600F0BCFE8B
:102AB0004FEA19198046A8B1A8469DB1C4F307236F
:102AC00003F0F003402B04D004F12003DBB2072B0A
:102AD0001ED9022000F064FF00F0A6FE80F0010085
:102AE0005FFA80F8C4F303330F2B45D8DFE813F007
:102AF0001300130068006800C10044004400440053
:102B0000D7003001410141019B0144004400A40170
:102B10004FF00008E6E7C4F30723C4F3032613F0DD
:102B2000F00F18BF36015FFA84F9A5B166B109F15B
:102B30002003DBB2072B304602D9B9F1000F07D1D1
:102B400000F082FE00F0E6FE4846FFF70DFF13E0BE
:102B500000F090FEF6E74846FFF74AFF66B109F13C
:102B60002003DBB2072B304602D9B9F1000F24D184
:102B700000F072FE00F0CEFEC4F30334083C032CD8
:102B800003D8FFF7EBFDFEF774FDB8F1000F00F07E
:102B90005A8100F041FE10F0010040F05481B870FD
:102BA00000F032FE00F046FD384600F05FF900F01C
:102BB0002BFEBDE8F04700F047BD00F063FED9E70B
:102BC000C4F3072303F0F003C4F30326202B5FFABA
:102BD00084FA18BF3601BAF1000F0DD0BAF1010F17
:102BE0002CD0BDB3B9F1000F2CD0BB79D9072FD5AC
:102BF0006FF30713BB7125E09DB1B9F1000F06D14A
:102C000000F064FE3043C0B2FFF737FFB4E7B9F11C
:102C1000010FF5D100F05AFE3043C0B200F062FE61
:102C2000AAE7B9F1000F05D100F068FE3046FFF7C2
:102C30002DFFA1E7B9F1010F9ED0F5E725B1B9F15C
:102C4000050F99D83046DFE7B9F1040F94D8EDE7C6
:102C500050467AE7B9F1000FE8D0BAF1390F0CBF4E
:102C60004FF44870012001F044FD5046FFF7C0FECC
:102C700082E7C4F3812343B1012B7FF47DAF65B1BB
:102C8000C4F30900FFF78AFD76E725B1C4F3090014
:102C9000FFF774FD70E72846FAE72846F2E714F4D8
:102CA000407F26D1002D7FF467AFC4F34210E206C7
:102CB0004FEA800048BF0F25C0B248BF854004F0EE
:102CC0000F03C4F3812248BFED438340022A45EA43
:102CD000030008D00AD8012A02D000F083FC4BE799
:102CE00000F078FC48E700F085FC45E700F06FFC59
:102CF00042E7C4F30122D3B2FDB102F00103002B7D
:102D00003FF43AAFC4F342108000C3B204F00F00A6
:102D100000FA03F214F010001CBF0F209840C4F317
:102D2000812318BFC043022B40EA02000AD00CD80E
:102D3000012B04D000F0A6FC1EE75B08DFE700F0E3
:102D400099FC19E700F0A6FC16E700F05FFC13E71A
:102D50005FFA84F9C4F3032625B1304600F06AFC1B
:102D6000484651E74846FFF791FE304600F06CFCBC
:102D700002E7E6B2A6F1F003042B3CD8DFE803F04B
:102D80000310171C250045B1B9F1040F3FF6F4AE4E
:102D9000C4F3042000F064FCEEE6B9F1050FF5E79A
:102DA000C4F30420002DE1D000F044FCE4E6C4F3B9
:102DB0000420002DF8D0D9E725B1C4F3042000F099
:102DC00034FCD9E600F02EFCD6E64DB1C4F3042560
:102DD000284600F02FFC0321284600F0C7FDCBE673
:102DE000012000F0DDFDB9F1010F7FF6C5AE022034
:102DF00000F0D6FDC0E63DB1B9F1000F01D030467C
:102E0000A3E6C4F30420CFE7B9F1000F08D0392EB0
:102E10000CBF4FF44870012001F06BFC304625E7F1
:102E2000C4F30420A2E7C4F30322E1B23846FEF75C
:102E300028FC00F061FB9FE6C4F30322E1B23846B0
:102E4000FEF721FC98E6BDE8F08738B50188044616
:102E5000807800F09FFC054600F024FC00F0B6FBF3
:102E600029462046BDE83840FFF719BE13B58388D0
:102E70000288ADF804200446CBB1BDF804204FF61B
:102E8000FF739A4213D0FEF799FB50B900F0CCFCC7
:102E900068B1A3785BB1022002B0BDE8104000F039
:102EA0007FBD2046FFF7D1FF2046FEF743FB02B06F
:102EB00010BD08B50020FFF761FC0020FFF76EFC95
:102EC00000F0E8FC00F0FCFCBDE8084000F022BD8A
:102ED00008B500F093FCBDE80840FFF7EABF08B56D
:102EE00000F0C2FCBDE80840FFF7F2BFC0F30333B7
:102EF0000E3303F00F020D2A10B522D8012101FA7A
:102F000002F313F4105FC4B218D140F2033213423B
:102F100003D113F010000DD110BDF02C13D004D844
:102F2000E72C8CBF00200120F6E7F42C14BF002012
:102F30000120F1E7E72C06D9F12CF7E7C0F3C02018
:102F4000EAE70020E8E70846E6E707B5ADF8040041
:102F5000019800F013FC03B05DF804EBFFF7C6BF67
:102F600082B002AB03E9030002B0704782B002AB4B
:102F700003E9030002B0704770B5094B094E1C7895
:102F8000094D3378A34200D170BD05EBC40355F859
:102F9000340059680134FFF7E9FF04F00704F0E753
:102FA000A90D0020A80D0020680D0020024B186814
:102FB0005968FFF7DBBF00BF600D0020224BF7B55B
:102FC0009A7912F0F00F0AD19A7842B11F4A204F35
:102FD0001278204E4FF6FF7C3978914201D103B030
:102FE000F0BD988860B319785C788DF804108DF87E
:102FF0000540BDF80450654522D006EBC20595F8A2
:1030000001E0A6451CD116F832408C4218D1A978AF
:10301000B1B9A988091A89B2B1F5967F10D2997908
:103020000948012262F307119971AB7962F3071322
:10303000AB71FFF71BFF03B0BDE8F040FFF79CBF8B
:10304000013202F00702C7E7600D0020A90D002041
:10305000A80D0020680D00202DE9F04FC54E8FB05F
:103060000446B1880068089030882378627894F824
:103070000280B4F80490ADF8040096F800E096F8E9
:1030800001C03546002900F00A8180B24FF6FF7B6F
:10309000584500F00481B778002F00F00081A9EBBB
:1030A0000101B07989B2B1F5967F00F0F00A80F0A5
:1030B000A480BAF1000F58D18DF808E08DF809C04E
:1030C000BDF808105945C2461CD08DF820308DF847
:1030D00021203188BDF820C08C4513D1B8F1000FF4
:1030E00040F06381012363F30710B071FFF75EFFC7
:1030F0003046FFF7BBFEB379A371002738460FB007
:10310000BDE8F08FB9F1000F40F05381B8F1000F26
:10311000F3D0AB7943F00103AB71EEE700EBC105EF
:1031200095F801C0944506D110F831C09C4502D1F4
:10313000AD78002DE1D1013101F007014DE110F42E
:10314000706F00D07BB12033DBB2072B0BD9204648
:10315000FFF78CFEBA4606E010F4706FF3D0A27948
:1031600012F0F00FEFD15746C8E78DF80CE08DF85C
:103170000DC0BDF80C10594516D08DF820308DF8D3
:1031800021203188BDF820C08C450DD1B8F1000F49
:103190000AD1A0712046FFF769FE23683360636897
:1031A0007360FFF703FFA9E78DF820308DF8212029
:1031B0000898FFF7CAFEE0B1B8F1000F19D0AB795B
:1031C0001F2B0CD92A88ADF8282000228DF82A2040
:1031D000ADF82C908DF82E300AA8FFF747FE236833
:1031E0002B6063686B60FFF7E9FEFFF7DFFE0127E6
:1031F00084E72046FFF73AFEF9E7BAF1000F16D14F
:103200008DF820308DF8212008AB8DF82280ADF8A4
:10321000249093E80300FFF7A3FE3046FFF726FE55
:10322000C6F800A0C6F804A0FFF7C0FE9BE78DF823
:1032300010E08DF811C0BDF81010594514D08DF86C
:1032400020308DF821203188BDF820C08C450BD16D
:10325000B8F1000F08D1A0712046FFF707FEC6F8AD
:103260000080C6F8048049E78DF820308DF82120D1
:103270000898FFF76AFE0028BBD0B8F1000FB8D05D
:10328000AB791F2BABD92A88ADF8302000228DF8FE
:103290003220ADF834908DF836300CA89DE7002927
:1032A0006AD08DF814E08DF815C0BDF814604FF6A3
:1032B000FF70864260D0AF78002F5DD1A9EB01018D
:1032C00089B2B1F5967F44D24746002F91D08DF850
:1032D00018E08DF819C0BDF81810814227D08DF87C
:1032E00020308DF821202988BDF8200088421ED189
:1032F000AB79DA0716D413F0F00F13D003F0F00215
:10330000F02A1CBFC3F303120132A3711CBF62F386
:103310000713A3712046FFF7A9FD23682B6063689C
:103320006B603EE723682B6063686B60E6E68DF8B0
:1033300020308DF821200898FFF707FE00287FF441
:103340004EAFAB79204643F00103AB71FFF78EFD22
:10335000D4E68DF820308DF82280ADF824908DF8D9
:10336000212008AB93E80300FFF7FAFD2F606F60A0
:1033700017E700BF600D0020B8F1000F3FF439AF30
:103380008DF820308DF821200898FFF7DEFD0746E4
:1033900000283FF42EAF23682B6063681C486B60E5
:1033A000FFF7DFFAFFF70AFEFBE6B9F1000F3FF483
:1033B000B0AE8DF81C308DF81D20BDF81C004FF606
:1033C000FF7188423FF4A2AEB8F1000F7FF4A1AEC6
:1033D00010481149067809781048B1427FF49EAE32
:1033E0008DF820308DF82120089800F0C7F9C0F33F
:1033F0000332C3B2032A3FF6AAAE01A151F822F06C
:103400003F3100083F3100085931000859310008A8
:10341000600D0020A80D0020A90D0020680D0020DF
:10342000F0B587B06C4684E803002046FFF714FE31
:103430002D4E2E4D074688B1BDF80430BDF8002052
:10344000ADF8102043B192B24FF6FF739A4203D009
:1034500094E80300FFF78AFD254C3EE094E8030062
:1034600004AB83E80300BDF80420BDF81010ADF8EC
:103470000C10002AF0D089B24FF6FF729142EBD0C7
:1034800034782978621C02F007028A420BD0184F68
:10349000327003CB07EBC40C47F83400CCF80410AF
:1034A000FFF76AFDD8E7FFF71AFD124B37702F7050
:1034B0001F605F60D0E704EBC000FFF7CDFD80B177
:1034C0002B7804EBC30254F833005168FFF74EFD2C
:1034D0002B78013303F007032B702878337883426D
:1034E000E9D107B0F0BD00BFA80D0020A90D002054
:1034F000680D0020600D0020F8B5034660B100257E
:1035000001261C4614F8010B732806D8042828D27B
:1035100001280FD0022827D0F8BD75283DD032D31E
:1035200000F17C03DBB26F2BF6D800F07F00FFF7D1
:103530005FFA0EE09C1C5B7803F12002D2B2072AEE
:103540000ED803F007039840C0B200F0A9F900F0CC
:10355000E1F92F46013FFFB2FF2F21D12346D0E7EB
:103560001846FFF701FAF4E758789C1C00F1200395
:10357000DBB2072BDBD800F0070006FA00F0C0B280
:1035800000F096F9E3E75F789C1C013FFFB2FF2F44
:10359000DFD00A2001F0ADF8F7E79C1C5D78D8E792
:1035A0000A2001F0A6F8D5E7704708B5FFF7FCFF41
:1035B00008BD000008B5FFF7F8FF034B1860BDE831
:1035C0000840FFF776BC00BFAC0D00207047FFF746
:1035D000F1BF0000024B1B681843FFF7EBBF00BFB1
:1035E000AC0D0020024B1B681840FFF7E3BF00BF83
:1035F000AC0D0020024B1B685840FFF7DBBF00BF3B
:10360000AC0D002008B5FDF74BFF08BD08B5FFF76E
:10361000F9FF034B1860BDE80840FFF74ABC00BF44
:10362000B00D00200020FFF7F1BF012303FA00F0E6
:10363000FFF7ECBF012303FA00F0024B1B681843AD
:10364000FFF7E4BFB00D0020012303FA00F0034BA5
:103650001B6823EA0000FFF7D9BF00BFB00D0020B0
:10366000012303FA00F0024B1B685840FFF7CEBF5E
:10367000B00D0020024B1B681843FFF7C7BF00BF07
:10368000B00D0020024B1B681840FFF7BFBF00BF02
:10369000B00D0020024B1B685840FFF7B7BF00BFBA
:1036A000B00D002070470000C0F3072303EB430375
:1036B00037B500EB830000F0FF0000F007030122A4
:1036C0009A40C0080A4B00EB8000D2B21844002494
:1036D000057821FA04F343F300036B4013400134EF
:1036E0006B40052C00F8013BF2D103B030BD00BFA8
:1036F000B40D0020C0F3072303EB430313B500EB25
:10370000830000F0FF0000F007040A49C00800EB46
:10371000800000220144104611F8013BE34003F011
:103720000103934001321843052AC0B2F4D102B01C
:1037300010BD00BFB40D00200E4B73B51E680E4BBC
:10374000ADF804001B681F241E4326FA04F3DB07B0
:10375000E5B206D414F1FF34F7D20025284602B0B2
:1037600070BD01992846FDF7A7FF80B20128F1D06E
:10377000F4E700BFB00D0020AC0D002007B5ADF898
:1037800004000198FFF7D8FF019903B05DF804EB3E
:10379000FDF792BF13B5104BADF804101B782BB199
:1037A000019802B0BDE81040FFF7E8BF70B1019882
:1037B000FFF7C2FF044601460198FFF775FF019924
:1037C000204602B0BDE81040FDF776BF0198FFF734
:1037D00091FF0446F3E700BF5E0D0020024B014657
:1037E000186800F0C8B900BF6C0C0020024B0146FD
:1037F000186800F0C2B900BF6C0C0020014B1868BB
:1038000000F0BDB96C0C0020024B93F90000C0F32E
:10381000C7007047DB0D0020024B187800F007004E
:10382000704700BFDB0D0020034B187810F0070035
:1038300018BF0120704700BFDB0D0020014B187836
:10384000704700BFDD0D0020024A13781843107046
:10385000704700BFDD0D0020024A137823EA000004
:1038600010707047DD0D0020014B00221A70704768
:10387000DD0D0020024A137818431070704700BF16
:10388000DE0D0020024A137823EA00001070704712
:10389000DE0D0020014B00221A707047DE0D002063
:1038A000024A137818431070704700BFDA0D0020E9
:1038B000024A137823EA000010707047DA0D0020E6
:1038C000014B00221A707047DA0D0020014B187866
:1038D000704700BFDC0D0020704708B5FFF7FCFF04
:1038E00008BD000008B5044B1978814202D0187059
:1038F000FFF7F3FF08BD00BFDC0D002008B5044B47
:103900001A781AB100201870FFF7E7FF08BD00BF52
:10391000DC0D002010B50D4B0D491B7809780D4CBE
:103920000B430D49206809780B430C490370097853
:1039300031B10B43037000F0DDF808B1FFF7DEFF93
:103940002068BDE81040FEF711BF00BFDD0D00206C
:10395000DE0D00206C0C0020DA0D0020DC0D0020B4
:10396000704708B5FFF7FCFF08BD000010B5064C16
:1039700041EAC0012170FFF75DFE94F90000C0F339
:10398000C700FFF7EEFF10BDDB0D002008B5034BAD
:1039900000201870FFF7E5FF08BD00BFDB0D002019
:1039A00008B50A4A92F9003023EA000040B21070CC
:1039B00042070AD1DBB2834207D0C0F3C700FFF74A
:1039C00043FEBDE80840FFF7E1BF08BDDB0D002066
:1039D000002070474FF6FF710020FEF73DB908B593
:1039E0000020FEF715F94FF6EB63C31A5842584111
:1039F00008BD0220FEF706B90320FEF703B9014611
:103A00000320FEF723B910B50420FEF7FBF80446A7
:103A10002120FEF7F7F844EA002080B210BD10B56F
:103A2000C1B204460420FEF711F9210A2120BDE8A5
:103A30001040FEF70BB901460F20FEF70FB9014603
:103A40001320FEF70BB90020FFF7F9BF08B50020DF
:103A5000FFF7F1FFFFF7F7FF08BD000010B54FF6C5
:103A6000EB610020FEF7F8F800210220FEF7EEF8E7
:103A7000002103200024FEF7E9F81A4B2146042018
:103A80001C60FEF7E3F821462120FEF7DFF821460F
:103A90000520FEF7DBF821460620FEF7D7F8FF21C8
:103AA0000720FEF7D3F821460820FEF7D7F8214675
:103AB0000D20FEF7CBF821461820FEF7CFF821465F
:103AC0001720FEF7C3F821461C20FEF7C7F8214651
:103AD0002020FEF7BBF821461820FEF7BFF8FFF7BD
:103AE000B5FF10BDAC0D0020FFF7B8BF01460E209A
:103AF000FEF7ACB8821C00F1080300209A4200D106
:103B0000704712F8011B0029F8D00130C0B2F5E768
:103B100039B1831C083013F8012B8A4203D0834249
:103B2000F9D1002070470120704730B54FF0FF33C6
:103B3000851C002215F8014B8C420ED0B3F1FF3FDB
:103B400002D1002C08BF13460132D4B2062C62B257
:103B5000F0D15A1C01D01844817030BD10B5831CBF
:103B60000022083013F8014B8C4208BF03F8012CE7
:103B70008342F7D110BDFFF7D8BFFFF7EFBF002397
:103B8000C0F80230C3807047704708B5FFF7FCFFEC
:103B900008BD08B5FFF768FEFFF77CFEFFF72EFEB5
:103BA0000020FEF7EBFD0020FEF7F8FDFEF7D6FD46
:103BB000FDF75FFDFFF7E9FF08BD000008B5202312
:103BC00083F3118800F040FE002383F31188014B3A
:103BD000186008BDE00D0020FFF7F0BF38B52023C6
:103BE00083F3118800F030FE002383F31188094B22
:103BF000196842F20F74411A00254FF47A70E0FB05
:103C0000014542F21072002320462946FCF7A6FB2C
:103C100038BD00BFE00D002008B5FFF7DFFF80B220
:103C200008BD10B50446FFF7D9FF001B80B210BDD8
:103C300010B50446FFF7D2FF001B10BD074B084A22
:103C40001A60BFF34F8F0749074BCA6802F4E0625E
:103C50001343CB60BFF34F8F00BFFDE7FCFF002095
:103C6000EFBEADDE00ED00E00400FA050A4A08B53B
:103C700052F8041C094B99420DD1002342F8043C30
:103C800083F31488064B1B6883F3088862B6054BE0
:103C90001B689847FEE708BD00000120EFBEADDEBF
:103CA0000000FF1F0400FF1F00207047014B186039
:103CB000704700BF700C0020FFF78CBE08B5FDF701
:103CC00015FF642000F015FDFDF710FF0020FDF743
:103CD000A3FEC30705D5FFF7EFFFBDE80840FFF7D8
:103CE000ADBF08BD08B5FFF77AFE08B9FFF7FCFEC7
:103CF000FFF77FFE074B1870FFF785FE064B188015
:103D0000FFF77AFEFFF763FC044B1868BDE8084034
:103D1000FFF778BCDF0D0020FC120020B00D002062
:103D200010B5084A084C117824784B1C03F00F0397
:103D30009C421DBF054C13706054002018BF012029
:103D400010BD00BF0E1300200F130020FE12002034
:103D5000202383F31188002383F311887047704771
:103D600038B5084C2546002045F8040F42EA0120EA
:103D70002A46194600F01AFA20606068002818BF29
:103D8000204638BDE40D002090F84A10074A022969
:103D9000137807D103F0FB03012B05D1044B5278B4
:103DA0001A707047024A1370704700BF220E00203D
:103DB000180E0020042938B505460C4613D00529F5
:103DC00011D002290ED1202383F31188084A012142
:103DD00000F098FD074A2146284600F093FD002395
:103DE00083F3118838BD2046BDE83840FFF798BFFF
:103DF000288400084C84000870B504460648C3684F
:103E00000D460BB100F0FEFA2B462146034A02484C
:103E1000BDE8704000F09CBA040E0020213E00086E
:103E200070B52023064683F311880378042B03D052
:103E3000002383F3118870BD134C2278002AF7D039
:103E4000124B1B78002BF3D003899B0704D4082363
:103E50000F4A012100F0A6FD247842F21073A4FB62
:103E6000034540F2E73020184FF000014FF47A721A
:103E70004FF0000345EB0101FCF770FA314680007A
:103E8000FFF7BAFFD4E700BF000E0020740C00203B
:103E9000190E0020F8B590F8443003F07F02212A73
:103EA00004466DD113F0800525D0002D68D090F820
:103EB0004500022819D003280ED0012860D194F8BB
:103EC00048302BB93D4AA2630822E2632364F8BD5F
:103ED0000023C4E90E33F9E7B4F84830002B4FD182
:103EE000374AA2630120E063F0E7364BA363012069
:103EF000E0630023EAE790F845300A2B3BD00B2B18
:103F00000DD0092B3CD190F84830012B38D82E4BDE
:103F100083630223C3632D4B23640120D7E7B0F8EA
:103F2000485025BB90F84630254A003318BF01237E
:103F30001370244B1A78D2B1202282F311881E7894
:103F400042F21073A6FB036740F2E73030184FF0DF
:103F500000014FF47A724FF0000347EB0101FCF7C8
:103F6000FDF921468000FFF747FF85F31188002304
:103F7000C4E90E33D0E7134B90F847201A70DAE704
:103F8000B4F8442040F281639A4201D000209EE7B9
:103F900094F84920616894F848304D6894F84710C7
:103FA00043EA0223204694F84620A8470028EDD093
:103FB0004368A3630368E3630023ADE7190E0020A1
:103FC000740C0020000E0020220E0020893D000805
:103FD0007047000008B5102200210448FCF7A2FA3F
:103FE000034A00231370034A137008BDFE12002019
:103FF0000E1300200F130020F8B50C4C0C4E254674
:10400000307823780B4F0021984202D101B12870FB
:10401000F8BD1A460133BA5C052A03F00F034FF0CE
:104020000101F1D12B70FFF7B4FDE9E70F13002078
:104030000E130020FE120020426D936B23F4002328
:1040400010B59363044643F6982000F052FB0649EE
:10405000204600F045FC626D936B43F400239363AC
:10406000024B0022DA6010BD70840008040E0020AC
:10407000014B1878704700BF180E002038B5054670
:10408000202383F31188104C2378042B0DD123892E
:104090009B070ED408232A4601210B4800F082FC1E
:1040A0000A4A2B6813606B685360002383F31188FE
:1040B00038BD236958694FF0FF310C3000F026FB02
:1040C0002378042BE6D0F0E7DC140020190E002042
:1040D0007047000007B52023024683F311880A4881
:1040E0000378042B05D0002383F3118803B05DF817
:1040F00004FB0323ADF80520022101AA8DF804304A
:1041000000F050FCEFE700BFDC14002007B52023CF
:10411000024683F311880A480378042B05D0002354
:1041200083F3118803B05DF804FB8DF80430ADF81B
:104130000520032301AA022100F034FCEFE700BFB1
:10414000DC140020FFF792BD704708B5FFF7FAFFB7
:1041500002F0AAF9FFF7F8FF08BD08B502F0EAF986
:10416000FDF7D8F808BD000008B500F049FB00F0E5
:10417000ADF8FEF73BFBFFF72DFF0A48FFF75CFFAA
:104180004FF4FA7000F0B5FAFEF744FB0648FEF76C
:10419000DFFAFFF731FFFEF74BFBFEF739FBFEF7C7
:1041A00038FBF6E7DC140020780C0020030A032B10
:1041B00011D006D8012B1ED0022B1FD000200346A1
:1041C00011E0212B11D0222BF8D1E9B10129F5D131
:1041D00032200F4B07E0C0B20228EFD80D4B0E493A
:1041E00053F82030085C1360704751B10129E5D1C4
:1041F00009200A4BF7E71220094BF4E73B20094B53
:10420000F1E70920084BEEE74020084BEBE700BF41
:104210004A850008808400088C840008BA8400085D
:10422000CA8400088F840008A1840008DC84000888
:10423000024B034A1A60034A5A6070471013002069
:104240008015002000000120094B30B51C684D1E70
:10425000224449422A440A4059681044814204D306
:10426000844202D81860104630BD0022FBE700BF30
:104270001013002008B5202383F31188FFF7E4FF13
:10428000002383F3118808BD70477047FEE70000E4
:104290000C4B70B5082000241968D3E901250439B6
:1042A000954207D8D968914209D8013803F1100323
:1042B000F2D170BD51F8046F42F8046BF0E742F898
:1042C000044BF0E77C850008FEE7000010B50D4CBC
:1042D00000F016F900F02EF8FFF7AAFF80220A4935
:1042E000204600F0C1F9012344F8180C037400F0D3
:1042F00039FA002383F3118862B60448BDE8104000
:1043000000F0DAB980140020FC850008048600085B
:1043100072B6014B5862FEE75814002000F0AEB8A8
:10432000034B59685A68521A9042FBD8704700BF35
:10433000001000E0054B03F11402C3E905224FF021
:10434000FF310022C3E90712704700BF5814002054
:10435000F8B50D46C0E90323044600F075FA022DB6
:104360002946274D2A4638BF022152F8143F93426E
:104370002E4617460AD12862C5E905440844C4E917
:104380000033A160BDE8F84000F04DBAD5F820C078
:10439000A0EB0C0251180D4627D34FF0000E9D687C
:1043A000AA421DD8BB420CEB020EACEB000018BFBA
:1043B000AA1AC6F820E001EB000518BF9A607369DD
:1043C0009A68AA4219D35A682360626014605C60DC
:1043D000A5609868451B9D604FF0FF33F361F8BD01
:1043E000C3F808E0521B1B68D9E79B689942E6D2E4
:1043F0000CEB010000F024FAE1E7AD1A1B68DFE7DF
:10440000581400201C4A5169814238B5036815468A
:1044100002F114040DD04268136003685A60A3428D
:104420004FF00002C26003D09A6881680A449A6023
:1044300038BD5361A3424FF000025C60CA6003D1F3
:10444000BDE8384000F0F7B99A6889682C6A0A44D8
:104450009A6000F0F9F96B699B68021B9342E7D9F7
:104460001C44241A012C286A98BF931C1844BDE8E8
:10447000384000F0E5B900BF581400202DE9F84F8E
:104480001E4C0027656904F11406B84600F0DCF9FB
:10449000236AAA68A0EB03094A451CD84FF0200AFA
:1044A000AA68236AD5F80CB0134423622B68B34280
:1044B0005E60A9EB02096361EF6001D100F0BBF916
:1044C00088F311882869D8478AF311886569AB6831
:1044D0004B45E5D9DAE76269B2420DD091682062B6
:1044E0000B441B1A9360AB68022B2CBFC018023020
:1044F000BDE8F84F00F0A4B9BDE8F88F58140020CB
:10450000024B0022C3E900339A6070475814002020
:10451000002303748268054B1B6899689142FBD2A3
:104520005A68036042601060586070475814002059
:1045300008B5202383F31188027C0023052A06D8BE
:10454000DFE802F00B050503120E426913604FF01D
:10455000FF334361FFF7DCFF002383F3118808BDBD
:104560004269936801339360D0E9003213605A6066
:10457000EDE70000002303748268054B1B6899680F
:104580009142FBD85A6803604260106058607047DF
:1045900058140020054B19690874186802681A60DD
:1045A0005360186101230374FBF7BEBE581400204A
:1045B00030B54B1C87B005460A4C10D023690A4A17
:1045C00001A8FFF7C5FE2846FFF7E4FF049B13B1DF
:1045D00001A8FFF717FF2369586907B030BDFFF73F
:1045E000D9FFF8E7581400203145000838B50C4DC4
:1045F00041612B6981689A689142044603D8BDE8FD
:104600003840FFF785BF1846FFF7B4FF01232C6140
:10461000014623742046BDE83840FBF785BE00BF45
:1046200058140020044B1A681B6990689B689842D4
:1046300094BF0020012070475814002010B5084C8A
:10464000236820691A6822605460012223611A7469
:10465000FFF790FF01462069BDE81040FBF764BEFC
:1046600058140020FFF7EABF826002210262002294
:104670000182C0E9062270478368C168A3F18C02F9
:1046800043F81C2C026943F84C2C426943F8482C2F
:10469000084A43F82C2C022203F8182C002243F875
:1046A000201C03F8172C43E9032143F8102CA3F135
:1046B000280070474103000810B5202383F31188B8
:1046C000FFF7DAFF00210446FFF790FF002383F392
:1046D0001188204610BD0000024B1B6958610F2055
:1046E000FFF758BF58140020202383F31188FFF7E9
:1046F000F3BF08B50146202383F311880820FFF794
:1047000057FF002383F3118808BD0000054B1B6988
:1047100021B1036058610320FFF74ABF4FF0FF301B
:10472000704700BF5814002003682BB100220260BC
:1047300059611846FFF7ECBE70470023C0E900003E
:1047400083607047EFF3098305494A6822F001024C
:104750004A60683383F30988002383F31188704724
:1047600030EF00E0202080F3118862B60B4B0C4A3A
:10477000D96821F4E0610904090C0A430949DA60A7
:10478000CA6842F08072CA6007490A6842F00102B2
:104790000A601022DA7783F82200704700ED00E00B
:1047A0000003FA05F0ED00E0001000E010B5202352
:1047B00083F311880E4B5B6813F4006314D0F1EEA1
:1047C000103AEFF30984683C4FF08073E361094BC2
:1047D000DB68236684F30988FFF724FF10B1064BDA
:1047E000A36110BD054BFBE783F31188F9E700BF18
:1047F00000ED00E030EF00E053030008560300082E
:1048000008B500F079FB00F00DFE00F021F800F093
:1048100050F800F057F8FFF7A0FCBDE8084000F0A2
:1048200000B801F0A7BD4FF08043002258631A6121
:104830000222DA6070474FF080430022DA6070474E
:104840004FF08043586370474FF08043586A704779
:1048500000F0A6BF01230370002343600C30FFF774
:104860006CBF10B52023044683F31188416000F02B
:10487000A7FF02232370002383F3118810BD7FB5A7
:104880000446202585F311880326067000250A9E1C
:1048900085600296099E0196089E009601F042F8F6
:1048A000431C14BF02230523237085F3118804B031
:1048B00070BD01F0A3BD0123037000234360C360FA
:1048C0000374704701F01EB9012303700023C36114
:1048D00083620362C36243620363C0E901337047CA
:1048E00038B50446202383F3118800254160C0E9D0
:1048F0000355C0E9055501F015F90223237085F32E
:10490000118838BD70B500EB810305465069DA6047
:104910000E46144618B114220021FBF703FEA069CD
:1049200018B114220021FBF7FDFD31462846BDE8F1
:10493000704001F0C1B9F8B5836803F00113044673
:10494000836000F1100500F11C0600272B6873B18D
:10495000586920B16FF001010C30FFF7E5FE2B68BC
:10496000986920B16FF001010C30FFF7DDFE45F8CA
:10497000047BB542EAD12046BDE8F84001F01ABAFE
:10498000F0B400EB81044789E4680125A4698D40F7
:104990003D43458123600023A2606360E360F0BC77
:1049A00001F030BAF0B400EB81040789E468012516
:1049B00064698D403D43058123600023A2606360EC
:1049C000E360F0BC01F0B4BA2DE9F0410223002508
:1049D00004460370C564856000F10C0600F11C07F5
:1049E0004FF0200833689BB188F311883368586909
:1049F00020B16FF001010C30FFF796FE3368986923
:104A000020B16FF001010C30FFF78EFE85F31188A5
:104A100046F8045BBE42E5D184F83450204601F0EC
:104A2000E7F863681B6823B120460021BDE8F04128
:104A30001847BDE8F081F8B5037880F850300523B9
:104A4000037043681B6804460BB104219847002695
:104A5000A66004F10C0520271C342B689BB187F35A
:104A600011882B68586920B16FF001010C30FFF7F5
:104A70005BFE2B68986920B16FF001010C30FFF7E5
:104A800053FE86F311880435A542E6D1F8BD43688C
:104A900090F850201B6802700BB105211847704731
:104AA00090F8343070B5044613B1002380F83430E8
:104AB00004F14402204601F09CF963689B68B3B995
:104AC00094F8443013F0600539D00021204601F0FD
:104AD00033FC0021204601F025FC63681B6813B1FC
:104AE000062120469847062384F8343070BD2046BE
:104AF00098470028E4D094F84B2094F84A3043EAD1
:104B00000223E26B9A4288BFE36394F94430E56B79
:104B1000002B4FF0200380F20B81002D00F0FA8073
:104B2000092284F8342083F311880021D4E90E236C
:104B30002046FFF737FF002383F31188D6E794F868
:104B4000452003F07F0343EA022340F202329342FE
:104B500000F0CC8025D8022B00F0A08009D8002BD3
:104B600051D0012BB1D17F4BA3630223E363002318
:104B70004EE0B3F5817F00F0A680B3F5407F49D0C9
:104B8000B3F5807FA1D194F84630012B9DD1B4F8C4
:104B90004C3023F00203C4E90E55A4F84C302564D0
:104BA000A9E740F2016293421DD8B3F5C06F3BD232
:104BB000B3F5A06F89D1B4F84430B3F5A06F0ED12E
:104BC00094F8463084F84E30204601F069F8636866
:104BD0001B6813B10121204698470323237000234B
:104BE000C4E90E3314E0B3F5106F33D040F602423F
:104BF0009342B8D0B3F5006F7FF467AF04F14F0371
:104C0000A363012324E004F14C02A2630222E263C5
:104C1000236470E794F84630012B7FF456AFB4F864
:104C20004C3043F00203B6E794F84920616894F8E9
:104C300048304E6894F8471043EA0223204694F81F
:104C40004620B04700283FF440AF4368A3630368A1
:104C5000E363A4E72378042B10D1202383F3118886
:104C60002046FFF768FE85F31188636884F84F508B
:104C70001B68032121700BB12046984794F84630F9
:104C8000002BACD084F84F300423237063681B687A
:104C9000002BA4D0022120469847A0E794F8483082
:104CA0001D0603F00F0120460AD501F095F80128F2
:104CB00004D002287FF409AF2B4B55E72B4B53E769
:104CC00001F07DF8F3E794F84630002B7FF4FDAE59
:104CD00094F8483013F00F0181D01A06204602D50F
:104CE00001F03EFB7BE701F031FB78E794F84630BA
:104CF000002B7FF4EAAE94F8483013F00F013FF434
:104D00006EAF1B06204602D501F016FB67E701F0E7
:104D100009FB64E7142284F8342083F311882B46BE
:104D20002A4629462046FFF72BFE85F31188DDE64B
:104D30005DB1152284F8342083F311880021D4E971
:104D40000E232046FFF71CFEF5E60B2284F83420E4
:104D500083F311882B462A4629462046FFF722FE78
:104D6000E3E700BF258600082186000823860008A7
:104D700038B590F834300446152B39D8DFE803F005
:104D80003E38383838383E38380B293938383838D2
:104D9000383838383E3E90F84B1090F84A20C36BB4
:104DA00042EA0122934214D2C268128AB3FBF2F59E
:104DB00002FB15356DB9202383F311882B462A4653
:104DC0002946FFF7EFFD85F311880A2384F8343074
:104DD0000EE0142384F83430202383F31188002359
:104DE0001A4619462046FFF7CBFD002383F31188AE
:104DF00038BD036C03B198470023E7E7002101F0B9
:104E00009BFA0021204601F08DFA63681B6813B1FC
:104E10000621204698470623D8E790F83420152A23
:104E200038B5044617D80123934040F64162134237
:104E30001ED113F480150FD19B020CD50B2380F8E3
:104E40003430202383F311882B462A462946FFF766
:104E5000A9FD85F3118838BDC3689B695B68002B89
:104E6000F9D1036C03B19847002384F83430F2E79A
:104E7000002101F061FA0021204601F053FA636835
:104E80001B6813B10621204698470623EDE700F181
:104E9000604300F01F02400903F5614309018000EF
:104EA000C9B200F1604083F8001300F561400123AE
:104EB0009340C0F8803103607047062108B508466A
:104EC000FFF7E5FF06210720FFF7E1FF0621082095
:104ED000FFF7DDFF06210920FFF7D9FF06210A2091
:104EE000FFF7D5FF06211720FFF7D1FF0621282065
:104EF000BDE80840FFF7CBBF08B5214B1A6962F047
:104F00001F021A611A6902F01F021A614FF0FF3086
:104F10001A695A69586100215A6959615A691A6AAD
:104F200062F080521A621A6A02F080521A621A6A99
:104F30005A6A58625A6A59625A6A1A6C42F0805226
:104F40001A641A6E42F080521A661A6E0D4A106880
:104F500040F480701060186F00F44070B0F5007F6E
:104F60001EBF4FF4803018671967536823F400732D
:104F7000536000F0DFF9BDE80840FFF79EBF00BFB7
:104F80000038024000700040354B4FF080521A64E8
:104F9000344A4FF4004111601A6842F001021A606D
:104FA0001A689207FCD59A6822F003029A602C4B8B
:104FB00019469A6812F00C02FBD1186800F0F9004B
:104FC00018609A601A6842F480321A600B689B037A
:104FD000FCD54B6F43F001034B67214B5A6F900791
:104FE000FCD5214A5A601A6842F080721A601D4A44
:104FF00053685904FCD51A4B1A689201FCD51B4A18
:105000009A600322C3F88C20194B1A68194B9A42F4
:10501000194B21D1194A1168194A91421CD14FF4F8
:1050200081721A60144A136803F00F03022BFAD13D
:105030000B4B9A6842F002029A609A6802F00C02E6
:10504000082AFAD15A6C42F480425A645A6E42F4E9
:1050500080425A665B6E704740F20272E1E700BF21
:10506000003802400070004019544107009488380D
:10507000002004E011640020003C024000ED00E04C
:1050800041C20F4108B5074B074A196801F03D01BD
:10509000996053680BB190689847BDE80840FFF7E6
:1050A00085BB00BF00600240380E002008B5084BE9
:1050B0001968890901F03D018A019A60054AD3689F
:1050C0000BB110699847BDE80840FFF76FBB00BF00
:1050D00000600240380E002008B5084B1968090C22
:1050E00001F03D010A049A60054A53690BB19069C9
:1050F0009847BDE80840FFF759BB00BF0060024079
:10510000380E002008B5084B1968890D01F03D01E3
:105110008A059A60054AD3690BB1106A9847BDE8C1
:105120000840FFF743BB00BF00600240380E00207C
:1051300008B5074B074A596801F03D01D960536A29
:105140000BB1906A9847BDE80840FFF72FBB00BF3E
:1051500000600240380E002008B5084B59688909E4
:1051600001F03D018A01DA60054AD36A0BB1106B88
:105170009847BDE80840FFF719BB00BF0060024038
:10518000380E002008B5084B5968090C01F03D01A4
:105190000A04DA60054A536B0BB1906B9847BDE87F
:1051A0000840FFF703BB00BF00600240380E00203C
:1051B00008B5084B5968890D01F03D018A05DA6090
:1051C000054AD36B0BB1106C9847BDE80840FFF758
:1051D000EDBA00BF00600240380E002008B5074B52
:1051E000074A196801F03D019960536C0BB1906C4E
:1051F0009847BDE80840FFF7D9BA00BF00640240F5
:10520000380E002008B5084B1968890901F03D01E6
:105210008A019A60054AD36C0BB1106D9847BDE8BE
:105220000840FFF7C3BA00BF00640240380E0020F8
:1052300008B5084B1968090C01F03D010A049A6091
:10524000054A536D0BB1906D9847BDE80840FFF7D4
:10525000ADBA00BF00640240380E002008B5084B0C
:105260001968890D01F03D018A059A60054AD36DE0
:105270000BB1106E9847BDE80840FFF797BA00BF22
:1052800000640240380E002008B5074B074A5968F1
:1052900001F03D01D960536E0BB1906E9847BDE8A7
:1052A0000840FFF783BA00BF00640240380E0020B8
:1052B00008B5084B5968890901F03D018A01DA6097
:1052C000054AD36E0BB1106F9847BDE80840FFF751
:1052D0006DBA00BF00640240380E002008B5084BCC
:1052E0005968090C01F03D010A04DA60054A536F60
:1052F0000BB1906F9847BDE80840FFF757BA00BF61
:1053000000640240380E002008B5084B5968890D2A
:1053100001F03D018A05DA60054AD36F13B1D2F876
:1053200080009847BDE80840FFF740BA006402409B
:10533000380E00200D4A30B500230D4C13600C25AB
:10534000194605FB03F00059016002EBC30001336D
:10535000102B4160F5D1074A4FF0FF339360D360C3
:10536000C2F80834C2F80C3430BD00BF380E00203B
:1053700028860008006002400F28F8B549D8264E5C
:105380000124376884403C4243D1DFF894C006EBE7
:10539000C00E0C25274314F0FF0F376005FB00C536
:1053A000CEE90123664609D01C4B1F6B47F400175A
:1053B0001F631F6D47F400171F651B6D14F47F4FAB
:1053C00009D0164B1C6B44F480041C631C6D44F420
:1053D00080041C651B6D0C234343F3581C6824F0A8
:1053E0001F041C601C6814F00104FBD10C2707FB90
:1053F00000603D2690F809C0476806FA0CF63E604A
:105400001C6021245C6112B1C07AFFF740FD284680
:10541000F8BD0025FBE700BF380E00200038024031
:105420002886000870472DE9F74FC2F3C31302F036
:105430000308C2F3800EC2F3C10CC2F341170193FB
:10544000454600244FF003094FF00F0ACB073DD526
:10545000019B04F00702920003FA02F64FF0010BE1
:1054600043680BFA04FB23EA0B0343EA0E03436091
:105470006300D0F808B009FA03F3DB430BEA030B2F
:105480004BEA0C0BC0F808B0D0F80CB003EA0B0BD9
:105490004BEA070B0AFA02F2B8F1020FC0F80CB09F
:1054A0006FEA02021CD1072C95BFD0F820B0D0F8CB
:1054B00024B00BEA02020BEA020295BF32433243E8
:1054C00002624262026813402B430360490819D00C
:1054D0004FEA4E0E4FEA8C0CBF00AD000134B5E729
:1054E000D0F800B003EA0B032B43072C036095BFF1
:1054F000036A436A1A401A4095BF16431643066270
:105500004662E3E703B0BDE8F08F000011F00C0F36
:1055100038B50546446B02D00A48FEF7F9FE2B6BFE
:105520001A68116821F01F0111601168C907FCD4C5
:10553000597A5A683D238B401360636843F40073C3
:10554000636038BDE886000811F00C0F70B50646A0
:10555000446B02D01448FEF7DBFEF36A1A68116848
:1055600021F01F011160156815F00105FBD1597A72
:105570005A683D238B401360636823F48053636053
:10558000236823F480632360236843F4007323605B
:10559000202383F31188294606F11C00FFF7C4F885
:1055A00085F3118870BD00BFE88600083E483F4A79
:1055B00070B5446BA369656945EA034323F07F43F3
:1055C000934202462CD010D8B3F1011F1AD03849AB
:1055D0008B4217D015F00A0F18BFA369EB0542BF25
:1055E000636923F48073636148E0324A93422DD0AB
:1055F0000232934235D0304A9342EBD1038CC3F34D
:10560000470309E0128C130A08D003F0060302F0E6
:105610000102134343F0F0032361DBE72261D9E782
:10562000636823F400736360C36A1B681A6842F0FE
:1056300001021A60626842F4805262605B68012B6A
:10564000C8D8236823F480632360C3E7636823F426
:1056500000736360036B1A68136843F001031360FF
:10566000B8E72369C36A1B685E685EB1038C43F0C8
:1056700001030384236843F4A0632360BDE8704002
:10568000FFF794B8636823F400736360236843F4FE
:1056900000732360202383F3118831461C30FFF709
:1056A00043F886F3118895E7A41400200200030054
:1056B000010003008200070008000300364B5A6B0C
:1056C000506970B500F45F44E44354611C6B256875
:1056D0002E6826F01F0681B22E602E68F607FCD4D5
:1056E000667A65683D24B4402C60DC6A25682E68C3
:1056F00026F01F062E602E68F607FCD4667A6568D1
:105700003D24B4402C6011F480741DBF01249C60C2
:1057100054699C601CBF24F4807454618D0542BFA1
:105720009C6844F002049C604C050BD555689C684D
:1057300025F400755560156844F0040445F40075BF
:1057400015609C600E0542BF9A6842F008029A609C
:105750004D0442BF9A6842F020029A60CC0442BFD6
:105760009A6842F010029A6001049A680ED542F0DD
:1057700040029A60202383F311886FF001010748EB
:10578000FEF7D2FF002383F3118801E0002AF1D154
:10579000BDE87040FFF70AB8A4140020C014002030
:1057A00010B5054C2046FFF755F80023034AE36186
:1057B0006263C4E90B3310BDA41400200054004000
:1057C0000378012B70B50446456B38D140F216437F
:1057D00040F25642C0E909324A4B98422FD14A4E14
:1057E0004A4A336A43F400133362336A23F40013E2
:1057F0003362336A052103460020FFF7BDFD444AAA
:10580000E062234605210620FFF7B6FD336C2063D6
:1058100043F400133364336E43F4001333660521FD
:105820001F20336EFFF733FB05212020FFF72FFBEE
:10583000626A3849A36A0A430B436262A362E36A5D
:10584000616B1A68606805F110039360226B067A39
:10585000126893604FF400432B604FF410620023F2
:105860002B606A604C68426824F03F042404240CD6
:105870004C604C6844F015044C60274CA2421ADC82
:105880005200264BB3FBF2F31622C3F30B030A625A
:10589000CB6102780B68022A9BB22AD0032A2ED051
:1058A000012A02D123F00A039BB20B602B6843F05C
:1058B00001032B6070BD1A4CA242E9DC022E0AD112
:1058C00002EB4204154AB2FBF4F292B21A4342F4DC
:1058D00000430722DBE7032E01BF192353430F4A7E
:1058E000B2FBF3F212BF40F6FF7292B24FF4804364
:1058F000ECE723F008039BB243F00203D5E743F043
:105900000A03D2E7A41400200038024049550008D9
:105910000D55000800000302A0860100406F400101
:10592000801A06002DE9F041490000260446456B27
:105930008660018486F31188016B806A09680860BB
:10594000CA604B60E36A626A1B681A60069ADA6092
:10595000079A5A60FEF778FF4FF02008074688F351
:105960001188AB699A0702D42B689B0528D5FEF7EE
:105970006BFFC01BB0F5FA7F1FD3236B1A68116849
:1059800021F01F0111601168CF07FCD4597A5A68C1
:105990003D238B401360E36A1A68116821F01F01F0
:1059A00011601168CE07FCD4597A5A683D238B40A8
:1059B00013604FF0FF30BDE8F08186F31188CEE729
:1059C0006B68089943F400736B602B6843F4807331
:1059D0002B6004F11C00FEF799FE0028EBD0236B2E
:1059E0001A68116821F01F0111601168CD07FCD4FD
:1059F000597A5A683D238B401360E36A1A6811682C
:105A000021F01F0111601168C907FCD4597A5A6846
:105A10003D238B401360CEE770B5D0E915439E68F7
:105A200000214FF0FF354A01A3180131D3F80009D6
:105A30000028BEBFD3F8000940F08040C3F8000939
:105A4000D3F8000B0028BEBFD3F8000B40F0804015
:105A5000C3F8000BA3188E42C3F80859C3F8085BBB
:105A6000E1D24FF00113C4F81C3870BD890141F038
:105A70002001016103699B06FCD41220FEF750BC93
:105A80001F4B03EB80022DE9F043D2F80CC05D6D93
:105A9000DCF81420461CD2F800E005EB063605EBD6
:105AA0004018516871450BD3D5F83428012303FA07
:105AB00000F022EA0002C5F834281846BDE8F08359
:105AC000BCF81040AEEB0103A34228BF2346D8F830
:105AD0001849A4B2B3EB840F0FD89468A4F1040959
:105AE00059F8047F3760A4EB09071F44042FF7D847
