:020000040800F2
:100000000004002075030008770300087703000848
:1000100077030008770300087703000877030008D8
:10002000770300087703000877030008F53200081B
:1000300077030008770300087703000877030008B8
:1000400077030008770300087703000877030008A8
:100050007703000877030008770300087703000898
:10006000770300087703000877030008113C0008B5
:10007000393C0008653C0008913C0008BD3C000884
:10008000E53C0008113D00087703000877030008ED
:100090007703000877030008770300087703000858
:1000A0007703000877030008770300087703000848
:1000B000F54B00087703000877030008E93F0008C4
:1000C000F54000087703000877030008770300086D
:1000D0007703000877030008770300087703000818
:1000E0007703000877030008770300087703000808
:1000F0007703000877030008770300083D3D0008F8
:1001000077030008770300087D4C00087703000898
:1001100077030008770300087703000877030008D7
:10012000693D0008913D0008BD3D0008E93D00081B
:10013000153E0008770300087703000877030008DE
:100140007703000877030008770300087948000860
:100150003D3E0008693E0008953E00087703000810
:100160007703000877030008770300087703000887
:100170007703000877030008770300087703000877
:100180007703000877030008770300087703000867
:100190007703000877030008770300087703000857
:1001A0007703000877030008770300087703000847
:1001B0007703000877030008770300087703000837
:1001C0007703000877030008770300087703000827
:1001D0007703000877030008770300087703000817
:0801E0000D020008E90100080E
:1001E80010B5054C237833B9044B13B10448AFF369
:1001F80000800123237010BD200C002000000000A7
:10020800C85300080C4B43B10C480D4910B5AFF367
:1002180000800C48036823B910BD0A48036833B945
:100228007047094B002BF7D0BDE810401847064B24
:10023800002BF5D0184700BF00000000C853000885
:10024800240C0020200C00200000000072B6394861
:1002580080F30888384880F3098838484EF60851F2
:10026800CEF20001086040F20000CCF200004EF629
:100278003471CEF200010860BFF34F8FBFF36F8F68
:1002880040F20000C0F2F0004EF68851CEF20001B4
:100298000860BFF34F8FBFF36F8F4FF00000E1EEA0
:1002A800100A4EF63C71CEF200010860062080F379
:1002B8001488BFF36F8F02F0C3FD02F044FD4FF0C6
:1002C80055301F491B4A91423CBF41F8040BFAE7DD
:1002D8001C49194A91423CBF41F8040BFAE71A49F4
:1002E8001A4A1B4B9A423EBF51F8040B42F8040BC2
:1002F800F8E700201749184A91423CBF41F8040B1F
:10030800FAE702F0A1FD02F09CFD144C144DAC423A
:1003180003DA54F8041B8847F9E701F03DFF114C54
:10032800114DAC4203DA54F8041B8847F9E702F090
:1003380089BD000000040020000C00200000000817
:100348000000002000040020C8530008000C002012
:10035800200C0020200C002080100020E001000864
:10036800E4010008E4010008E80100086EE700F075
:1003780000F8FEE72DE9F04F2DED108AC1F80CD0FA
:10038800C3689D46BDEC108ABDE8F08F002383F357
:1003980011882846A047002002F07AFFFEE702F005
:1003A8001FFF00DFFEE7000053B94AB9002908BF64
:1003B80000281CBF4FF0FF314FF0FF3000F07AB932
:1003C800ADF1080C6DE904CE00F006F8DDF804E0A4
:1003D800DDE9022304B070472DE9F0478C460D464D
:1003E8000446089E002B51D18A4217466DD9B2FAAD
:1003F80082FEBEF1000F0BD0CEF1200C01FA0EF5F3
:1004080020FA0CFC02FA0EF74CEA050C00FA0EF47E
:100418004FEA174A250CBCFBFAF81FFA87F90AFBC2
:1004280018CC45EA0C4508FB09F3AB420AD9ED198B
:1004380008F1FF3280F02381AB4240F22081A8F11D
:1004480002083D44ED1AA4B2B5FBFAF00AFB1055B8
:1004580044EA054400FB09F9A14509D9E41900F16A
:10046800FF3380F00A81A14540F2078102383C44FD
:10047800A4EB090440EA08400021002E61D024FAC8
:100488000EF4002334607360BDE8F0878B4207D90F
:10049800002E54D0002186E821000846BDE8F087E8
:1004A800B3FA83F1002940F08E80AB4202D3824236
:1004B80000F2FA80841A65EB03050120AC46002E91
:1004C8003FD086E81010BDE8F08712B90127B7FBC6
:1004D800F2F7B7FA87FEBEF1000F34D1EB1B3A0CE6
:1004E8001FFA87FC0121B3FBF2F8250C02FB183335
:1004F80045EA03450CFB08F3AB4207D9ED1908F1AF
:10050800FF3002D2AB4200F2D1808046ED1AA3B28E
:10051800B5FBF2F002FB105543EA05440CFB00FC66
:10052800A44507D9E41900F1FF3302D2A44500F22B
:10053800B8801846A4EB0C0440EA08409DE7314611
:100548003046BDE8F087CEF1200405FA0EF307FA2D
:100558000EF720FA04F83A0C25FA04F448EA0308DE
:10056800B4FBF2F14FEA184502FB11441FFA87FC6D
:1005780045EA044501FB0CF3AB4200FA0EF409D935
:10058800ED1901F1FF3080F08A80AB4240F287809C
:1005980002393D44EB1A1FFA88F5B3FBF2F002FB6F
:1005A800103345EA034500FB0CF3AB4207D9ED19BC
:1005B80000F1FF386FD2AB426DD902383D44EB1AD7
:1005C80040EA01418FE7C1F1200722FA07F88B4082
:1005D80005FA01F448EA030320FA07FE4FEA134C30
:1005E800FD404EEA040EB5FBFCF94FEA1E440CFB35
:1005F80019551FFA83F844EA054509FB08F4AC428B
:1006080002FA01F200FA01FA08D9ED1809F1FF30EF
:1006180043D2AC4241D9A9F102091D442D1B1FFA4E
:100628008EFEB5FBFCF00CFB10554EEA054400FBB2
:1006380008F8A04507D9E41800F1FF3529D2A045EC
:1006480027D902381C4440EA0940A4EB0804A0FB5F
:1006580002894C45C6464D4615D312D056B1BAEB61
:100668000E0364EB050404FA07F7CB401F43CC40A4
:10067800376074600021BDE8F0871846F8E69046B8
:10068800E0E6C245EAD2B8EB020E69EB0305013891
:10069800E4E72846D7E7404691E78146BEE70146AA
:1006A80078E702383C4445E7084608E7A8F102081D
:1006B8003D442BE7704700BF20224FF400710148EA
:1006C80003F01DBC0004024003230222012100F0B4
:1006D8005BB808B545F66353984206D1887828B1C7
:1006E800002000F046F8002008BD012008BD0120C8
:1006F800704708B5FFF7EDFF08BD704708B5FFF76D
:10070800FCFF08BD13B502AB03E903000F4B1B78D0
:10071800B3B99DF80230009873B16AB100F0AEFC2D
:1007280004460146009800F063FC0099204602B098
:10073800BDE8104001F012BA00F080FC0446F4E76E
:10074800009800F09BFC0099F1E700BF3C0C0020EA
:1007580003460A4600689988FFF7D4BF012070470E
:1007680010B500210446FFF7F3FF2146FFF7C6FF47
:1007780010BD10B501248440E0B201F0C2F8204653
:10078800BDE8104000F0C7BB10B5012404FA02F21E
:1007980004FA01F1114304FA03F331EA00020CBF31
:1007A8001843984310BD08B501F0C4FB00F070F879
:1007B800BDE8084001F0DFBB08B501F07DFDBDE8EC
:1007C800084001F0DDBB704708B500F04FFBFFF7AC
:1007D800FAFF40F6C41002F060FDBDE8084002F0E0
:1007E8005BB838B501210546FFF7B2FFAB78044680
:1007F8000BB101F02DFD29462046FFF77AFF08B915
:10080800002038BD2946204601F0DEFD0028F7D03B
:100818002946204601F028FE0028F1D02946204626
:1008280001F02AFF0028EBD0AB785BB145F65B53AB
:100838009C421CD00AD8B4F5B84F12D045F6DF4315
:100848009C4211D02846FFF752FF38BD45F65C534D
:100858009C420FD045F65D539C42F3D100F04CFF0B
:10086800F0E7FFF7B1FFCBE701F0C0F8C8E700F009
:100878004DFFE7E700F04DFFE4E7704708B5FFF7E5
:10088800FCFF08BD0120704708B5FFF7FBFF08BD56
:10089800704710B50446FFF7F1FF2046FFF7F4FF55
:1008A80010BD30B587B08DE803009DF802306D4665
:1008B8000BB100F05DFF04AC0023636095E8030012
:1008C800ADF8141089B20490ADF80C0021B182B2D1
:1008D8004FF6FF739A4205D194E8030000F074FEC6
:1008E80007B030BD2046FFF739FF0028F4D1F7E7FD
:1008F80008B5008800F0E4FB08BD000038B50446E0
:1009080000283AD0031FDBB2A02B13D81B4D014699
:10091800286801F021FF28B12146286801F051FF1D
:1009280000F06CFF2146286801F049FFBDE8384017
:1009380000F064BF00F12003DBB2072B07D800F0FA
:1009480007040120A040C0B200F0ECFEEEE700F181
:100958005B03DBB2022B05D8094AD05CBDE83840FE
:1009680001F0CCBE5834E4B2162C06D8054B33F847
:100978001400BDE8384001F0D1BE38BD000C00209D
:10098800844F0008884F000808B568B3031FDBB21E
:10099800A02B08D8154B0146186801F012FFBDE8D6
:1009A800084000F02BBF00F12003DBB2072B08D86A
:1009B800012300F0070003FA00F0C0B200F0BAFE0D
:1009C800EDE700F15B03DBB2022B04D80020BDE8A1
:1009D800084001F093BE5830C0B2162804D8002051
:1009E800BDE8084001F09ABE08BD00BF000C002019
:1009F80038B505460C46FFF781FF24B92846BDE8FF
:100A08003840FFF7C1BF0A20013C02F046FCA4B2FF
:100A1800F3E739280CBF50210021FFF7E9BF08B5DB
:100A280028B100F07FFEBDE8084000F0E7BE08BD31
:100A380008B528B100F07EFEBDE8084000F0DEBE33
:100A480008BD2DE9F04790F806A0857807460C46C2
:100A580000F038FE4FEA1A1A8046A8B1A8469DB1A0
:100A6800C4F3072303F0F003402B04D004F1200360
:100A7800DBB2072B1FD9022000F010FF00F022FE86
:100A880080F001005FFA80F8C4F30339B9F10F0F61
:100A980042D8DFE819F0130013004A004A009F000B
:100AA800410041004100CB002301350135018A0195
:100AB8004100410093014FF00008E5E7C4F3072324
:100AC80013F0F00F16BF2609C4F3032606F0F0064C
:100AD800E4B295B156B104F12003DBB2072B3046DE
:100AE80000D93CB900F01EFE00F088FE2046FFF752
:100AF80005FF11E000F02CFEF6E72046FFF744FF63
:100B080056B104F12003DBB2072B304600D94CB9AB
:100B180000F010FE00F072FEA9F10809B9F1030F08
:100B280068D8A1E000F01CFEF4E7C4F3072303F043
:100B3800F003202B14BF2609C4F30326E4B218BF20
:100B480006F0F00664B1012C2CD0ADB3BAF1000F59
:100B58002CD0BB79D907C9D56FF30713BB7125E032
:100B68009DB1BAF1000F06D100F01EFE3043C0B2AD
:100B7800FFF755FFD0E7BAF1010FF5D100F014FEE9
:100B88003043C0B200F01CFEC6E7BAF1000F05D131
:100B980000F028FE3046FFF74BFFBDE7BAF1010F22
:100BA800F6D1B9E725B1BAF1050FB5D83046DFE778
:100BB800BAF1040FB0D8EDE7BAF1000FEAD0392C3A
:100BC8000CBF4FF44870012002F067FB2046FFF786
:100BD800DBFEA1E7C4F381233BB1012B9CD11DB3FC
:100BE800C4F3090001F09AFD04E0DDB1C4F3090083
:100BF80001F084FDB8F1000F00F0E78000F05AFD25
:100C080010F0010040F0E180B87000F04BFD00F0FA
:100C1800B5F9384600F0EBF800F044FDBDE8F047C0
:100C280000F0B6B92846E3E72846DBE714F4407F2E
:100C380028D1CDB9C4F34210E2064FEA800048BF7C
:100C48000F25C0B248BF854004F00F03C4F38124C8
:100C580048BFED438340022C45EA03000CD00ED870
:100C6800012C06D000F062F901F038FDFFF711FE03
:100C7800C0E700F053F9F7E700F060F9F4E700F097
:100C88004AF9F1E7F5B1C4F30023002BECD0C4F323
:100C980042108000C3B204F00F0000FA03F214F00F
:100CA80010001CBF0F209840C4F3812418BFC04314
:100CB800022C40EA02000BD00DD8012C05D000F020
:100CC80085F9D1E7C4F34023DFE700F077F9CBE7F4
:100CD80000F084F9C8E700F03DF9C5E7E6B23DB198
:100CE800C4F3032000F04AF93046FFF798FEBBE74B
:100CF8003046FFF79DFEC4F3032000F049F9B3E73F
:100D0800E6B2A6F1F003042B3DD8DFE803F00310A8
:100D1800161D260045B1BAF1040F3FF6FDAEC4F327
:100D2800042000F041F9F7E6BAF1050FF5E735B10F
:100D3800C4F3042000F022F9EEE6002DF8D0C4F345
:100D4800042000F025F9E7E625B1C4F3042000F0FB
:100D580010F9E1E600F00AF9DEE64DB1C4F3042427
:100D6800204600F00BF90321204600F073FDD3E67E
:100D7800012000F093FDBAF1010F7FF6CDAE0220FD
:100D880000F08CFDC8E625B1BAF1000FD0D030468E
:100D9800ADE6BAF1000FD2D0392E0CBF4FF448702F
:100DA800012002F07AFA304611E7C4F30322E1B2D7
:100DB800384600F0CFFE00F0AFF91BE7C4F303227A
:100DC800E1B2384600F0C8FE14E7BDE8F08738B550
:100DD80001880446807800F07FF9054600F006F99E
:100DE80000F098F829462046FFF72BFE38BD13B5CA
:100DF80083880288ADF804200446CBB1BDF80420EE
:100E08004FF6FF739A4213D0FFF7EBFC50B900F08E
:100E180059FC68B1A3785BB1022002B0BDE810406C
:100E280000F03CBD2046FFF7D2FF2046FFF798FCB4
:100E380002B010BD08B5002001F060FC002001F0F0
:100E48006DFC00F095FC00F0A9FCBDE8084000F03E
:100E5800D5BC000008B5044B186801F0B4FCBDE827
:100E68000840FFF7E7BF00BF000C002008B500F0FE
:100E780069FCBDE80840FFF7EDBFC0F303330E334C
:100E880003F00F020D2A0CD80123934013F4105FCE
:100E9800C1B217D140F20330184004D113F0100347
:100EA8000BD100207047F02902D003D8E729F8D8E1
:100EB80001207047F429F4D1FAE7E729F8D9F12994
:100EC800F6D07047C0F3C020704708B5008800F01E
:100ED800F7F8FFF7D2FF08BD82B002AB03E90300C1
:100EE80002B0704782B002AB03E9030002B070475A
:100EF800704708B5FFF7FCFF08BD000008B5FFF70D
:100F0800F8FF034B1860BDE80840FFF793BF00BF28
:100F1800400C00207047FFF7F1BF0000024B1B6830
:100F28001843FFF7EBBF00BF400C0020024B1B68C3
:100F38001840FFF7E3BF00BF400C0020024B1B68BE
:100F48005840FFF7DBBF00BF400C002008B5FFF793
:100F5800BBFB08BD08B5FFF7F9FF034B1860BDE8F8
:100F68000840FFF767BF00BF440C00200020FFF7D0
:100F7800F1BF012303FA00F0FFF7ECBF012303FAE6
:100F880000F0024B1B681843FFF7E4BF440C002035
:100F9800012303FA00F0034B1B6823EA0000FFF764
:100FA800D9BF00BF440C0020012303FA00F0024B14
:100FB8001B685840FFF7CEBF440C0020024B1B684B
:100FC8001843FFF7C7BF00BF440C0020024B1B6843
:100FD8001840FFF7BFBF00BF440C0020024B1B683E
:100FE8005840FFF7B7BF00BF440C0020704700000F
:100FF800C0F3072303EB430300EB830303F0FF0372
:1010080037B503F0070201209040DB080A4A03EBDA
:101018008303C0B2134400245D7821FA04F242F33A
:1010280000026A40024001346A40052C03F8012F8F
:10103800F2D103B030BD00BF470C0020C0F3072336
:1010480003EB430313B500EB830000F0FF0000F04F
:1010580007040949C00800EB80000022014410463B
:101068008B5CE34003F00103934001321843052AE7
:10107800C0B2F5D102B010BD480C00200E4B73B5BC
:101088001E680E4BADF804001B681F241E4326FA89
:1010980004F3DB0706D414F1FF34F8D20025284600
:1010A80002B070BDE5B20199284600F03BFE80B25F
:1010B8000128F0D0F3E700BF440C0020400C0020CA
:1010C80007B5ADF804000198FFF7D8FF019900F0C3
:1010D80029FE03B05DF804FB13B50E4BADF8041000
:1010E8001B7823B10198FFF7EBFF02B010BD60B188
:1010F8000198FFF7C3FF044601460198FFF778FF00
:101108000199204600F00EFEEFE70198FFF796FFE1
:101118000446F5E73C0C0020F8B50346002853D0F8
:10112800002501261878732803F1010406D804283D
:1011380020D201280AD002281FD0F8BD752835D042
:101148002AD3A0F184036F2B33D9F8BD9C1C5B789C
:1011580003F12002D2B2072A0BD803F00703984004
:10116800C0B200F00BFB00F049FB2F4637BB23460B
:10117800D8E71846FFF7C2FBF7E758789C1C00F140
:101188002003DBB2072B16D800F0070006FA00F0A0
:10119800C0B200F0FBFAE6E75F789C1C002FE4D0B1
:1011A8000A20013F02F079F8FFB2F7E79C1C5D784E
:1011B800DBE700F07F00FFF7E7FBD6E70A20013FF7
:1011C80002F06BF8FFB2D1E7F8BD000070B5094B2B
:1011D800094E1C78094D3378A34200D170BD05EB48
:1011E800C40355F8340059680134FFF77BFE04F056
:1011F8000704F0E7AF0C0020AE0C00206E0C0020B6
:10120800024B18685968FFF76DBE00BF660C0020D6
:10121800224BF7B59A7912090AD19A7842B1204A35
:10122800204F1278204E4FF6FF7E3978914201D137
:1012380003B0F0BD988860B319785C788DF8041015
:101248008DF80540BDF80450754522D006EBC2055F
:1012580095F801C0A4451CD116F832408C4218D12B
:10126800A978B1B9A988091A89B2B1F5967F10D2BF
:1012780099790A48012262F307119971AB7962F3EF
:101288000713AB71FFF7B3FD03B0BDE8F040FFF7FC
:101298009DBF013202F00702C7E700BF660C0020BD
:1012A800AF0C0020AE0C00206E0C00202DE9F0479A
:1012B800B54F8EB00446BB880068089038882178FE
:1012C800627894F80280B4F804A0ADF804000DF137
:1012D800200E3E46002B00F0028185B24FF6FF7CBF
:1012E800654500F0FC8097F80290B9F1000F00F016
:1012F800F680AAEB03039BB2B3F5967FBB7980F027
:10130800AD8013F0F00F6FD1654516D03D88208869
:10131800854212D14546B8F1000F0ED1012262F381
:101328000713BB71FFF76CFF3846FFF760FDBB7909
:10133800A37128460EB0BDE8F0874546BAF1000F04
:1013480049D08DF81C108DF81D20BDF81C004FF6F3
:10135800FF7398423FD0002D40D18C488C4B0778C2
:101368001B788C48BB420FD18DF821208DF82010B6
:101378000898FFF7A5FEC0F30332C3B2032A1DD8AD
:10138800DFE802F01313212100EBC30696F801E011
:10139800964506D110F833E08E4502D1B678002E76
:1013A800C7D1013303F00703DCE710F4706F01D0F5
:1013B800002BBED02033DBB2072BBAD92046FFF76B
:1013C80016FD4D46B5E710F4706FF3D0A27912F010
:1013D800F00FEFD1ADE7B8F1000FAAD0B37943F021
:1013E8000103B3710025A4E780B2604511D03988A4
:1013F800228891420DD1B8F1000F0AD1A37120467D
:10140800FFF7F5FC23683B6063687B60FFF7F8FE35
:10141800D7E72046FFF759FDE0B1B8F1000F19D022
:10142800B3791F2B0CD93288ADF8282000228DF80B
:101438002A20ADF82CA08DF82E300AA8FFF7D7FC8B
:101448002368336063687360FFF7E2FEFFF7D8FE36
:1014580001256EE72046FFF7CAFCF9E713F0F0050F
:1014680013D18DF821208DF82280ADF824A08DF8B5
:1014780020109EE80300FFF72FFD3846FFF7B7FC62
:101488003D607D60FFF7BCFE53E780B260450FD03A
:101498003988228891420BD1B8F1000F08D1A37185
:1014A8002046FFF7A4FCC7F80080C7F8048088E747
:1014B8002046FFF70AFD0028CCD0B8F1000FC9D0AC
:1014C800B3791F2BBCD93288ADF8302000228DF8B3
:1014D8003220ADF834A08DF836300CA8AEE730884D
:1014E800ADF81400002B57D085B24FF6FF77BD42F8
:1014F80052D0B578002D4FD1AAEB03039BB2B3F5B8
:10150800967F32D24546002DA4D080B2B8421ED074
:10151800328823889A421AD1B379DA0712D41A0981
:1015280010D0A3711B090F2B1FBFA279013363F3DE
:101538000712A2712046FFF75AFC236833606368DC
:1015480073609FE72368336063687360F1E6204641
:10155800FFF7BBFC00287FF473AFB379204643F054
:101568000103B371FFF743FCE3E68DF82280ADF881
:1015780024A08DF820108DF821209EE80300FFF7A5
:10158800ABFC356075607DE7660C0020AE0C002072
:10159800AF0C00206E0C0020B8F1000F3FF45AAFDA
:1015A8002046FFF792FC054600283FF453AF236816
:1015B8003360636803487360FFF79AF9FFF728FE02
:1015C80060E700BF660C0020F0B587B08DE8030027
:1015D8006846FFF76BFE2F4F2F4D0646B0B1BDF89A
:1015E8000430BDF80020ADF8082043B192B24FF6A0
:1015F800FF739A4203D09DE80300FFF773FC274C62
:1016080028783B78834228D107B0F0BD9DE80300D5
:1016180004AB83E80300BDF80410BDF81020ADF852
:101628000C200029EBD090B24FF6FF729042E6D022
:101638003C782878621C02F00702824221D0174EBB
:10164800ADF8141003CB06EBC40E46F834003A701C
:10165800CEF80410FFF7BAFDD1E704EBC000FFF79E
:1016680025FE0028D0D02B7804EBC30254F83300B1
:101678005168FFF737FC2B78013303F007032B7011
:10168800BEE7FFF7F3FB064B3E702E701E605E60F0
:10169800BAE700BFAE0C0020AF0C00206E0C002093
:1016A800660C0020024B93F90000C0F3C700704796
:1016B800B90C0020024B187800F00700704700BFF3
:1016C800B90C0020034B187810F0070018BF012050
:1016D800704700BFB90C0020064A5378C3F3800155
:1016E800814205D060F382035370108800F019B965
:1016F800704700BF100E0020034B587880F004009C
:10170800C0F38000FFF7E8BF100E00200120FFF7AC
:10171800E3BF0020FFF7E0BF014B1878704700BF18
:10172800BB0C0020024A137818431070704700BFA2
:10173800BB0C0020024A137823EA0000107070479F
:10174800BB0C0020014B00221A707047BB0C002014
:10175800024A137818431070704700BFBC0C002071
:10176800024A137823EA000010707047BC0C00206E
:10177800014B00221A707047BC0C0020024A1378F3
:1017880018431070704700BFB80C0020024A137845
:1017980023EA000010707047B80C0020014B0022AB
:1017A8001A707047B80C0020014B1878704700BFBA
:1017B800BA0C0020704708B5FFF7FCFF08BD000011
:1017C80008B5064B5B785B0706D4054B1978814250
:1017D80002D01870FFF7EFFF08BD00BF100E002001
:1017E800BA0C002008B5044B1A781AB100201870FA
:1017F800FFF7E1FF08BD00BFBA0C002010B50D4B84
:101808000D491B7809780D4C0B430D492068097860
:101818000B430C490370097831B10B43037000F096
:101828008DFF08B1FFF7DEFF2068BDE8104000F02B
:101838005DBF00BFBB0C0020BC0C0020000C0020CA
:10184800B80C0020BA0C0020704708B5FFF7FCFF61
:1018580008BD00000A4A5278520710B50CD4094C4A
:1018680041EAC0012170FFF789FB94F90000C0F339
:10187800C700FFF7EAFF10BDBDE81040FFF77EBBC9
:10188800100E0020B90C002008B5034B002018707A
:10189800FFF7DBFF08BD00BFB90C002008B50C4AF4
:1018A80092F9003023EA000040B21070420702D1DA
:1018B800DBB2834203D1074B5B785B0707D5C0F3E4
:1018C800C700FFF765FBBDE80840FFF7DDBF08BDAF
:1018D800B90C0020100E00204FF6FF71002000F018
:1018E8007DBC08B5002000F069FC4FF6E963C31A17
:1018F8005842584108BD022000F05ABC032000F0AD
:1019080057BC0146032000F063BC10B5042000F06A
:101918004FFC0446222000F04BFC44EA002080B231
:1019280010BD10B5C1B20446042000F051FC210AD4
:101938002220BDE8104000F04BBC01460F2000F00B
:1019480055BC0146132000F051BC0020FFF7F9BF39
:1019580008B50020FFF7F1FFFFF7F7FF08BD00000B
:1019680010B54FF6E961002000F038FC0021022094
:1019780000F02EFC00210320002400F029FC1A4B63
:10198800214604201C6000F023FC2146222000F0A0
:101998001FFC2146052000F01BFC2146062000F014
:1019A80017FCFF21072000F013FC2146082000F057
:1019B8001DFC21460D2000F00BFC2146182000F0EC
:1019C80015FC2146172000F003FC21461C2000F0DE
:1019D8000DFC2146202000F001FC2146182000F0D3
:1019E80005FCFFF7B5FF10BD400C0020FFF7B8BF9E
:1019F80001460E2000F0ECBB08B500F01DFF024BBD
:101A08001860024B186008BDC00C0020C40C0020F0
:101A18007047704708B5FFF7FCFF08BD704708B569
:101A2800FFF7FCFF08BD000008B5044800F062FAA3
:101A3800FFF7EEFFFFF7EEFF08BD00BFF51E000839
:101A48000120704708B5FFF7FBFF08BD70477047D6
:101A580008B5FFF7FBFFFFF7FAFF08BD08B500F070
:101A6800E9FE00F02FFBFFF7DAFF08BD2DE9F04F84
:101A780085B000F041FB08B1FFF7BEFF324F0024EC
:101A8800B8465FFA84F9484600F07EFA37F81460E1
:101A9800B042834616D10134042CF2D1FF238DF8CD
:101AA80008308DF8093000238DF80A3000F0E2FE86
:101AB80040F00100ADF80C0004AB13E90300FEF799
:101AC800F0FE2AE0214B1B789B0701D500F062FA53
:101AD800002301258BEA060635425FFA83FA2AD0ED
:101AE800FFF7B0FFA0B11BEA050F14BF01230023C5
:101AF8008DF800A08DF801908DF8023000F0BAFE44
:101B080040F00100ADF804009DE80300FEF7C9FEAF
:101B180038F814305D4028F814500D4C00F0DEFD04
:101B2800237883420DD000F0D9FD207005B0BDE8C0
:101B3800F04FFEF7AEBE01336D000C2BADB2CBD12A
:101B4800A9E705B0BDE8F08FCA0C0020D20C002030
:101B5800C80C002000207047704700003022504316
:101B6800C1F307230C2202FB030353FA81F3034A50
:101B780032F8130082B002B0704700BF044E00086C
:101B8800014B33F810007047E84F000810B500F01B
:101B9800D5F8B0F5A04F04462DD2B0F5804F80F0AF
:101BA8008880DF2817D8C02874D2A72808D8A52885
:101BB80066D2012817D001D3042814D2002412E0D9
:101BC800BE28FBD85834E4B2544B33F8144044F4DC
:101BD8008844A4B207E0B0F5005F06D2B0F5807F74
:101BE80055D2E728EAD8204610BDB0F5405F57D255
:101BF800C0F30B0050E0B0F5AA4F1BD2B0F5A84FC8
:101C0800C3B275D2B0F5A44F07D2B0F5A24F55D3E1
:101C18004AF2F10040EA0324E5E7B0F5A64F5DD2A9
:101C28009808012403F003039C4044EA401444F458
:101C38000C44CEE7B0F5B24F0ED2B0F5B04F5CD23F
:101C4800B0F5AC4FBAD2C0B200F0FAF8040204F40E
:101C5800F85444F40054C6E7B0F5B44F52D3A0F595
:101C6800C043B3F5005FA9D2C0F3042000F0E8F840
:101C7800E4B2000244F4005400F4F8500443B2E71C
:101C88005B34E4B2264B1C5D44F48044ABE7C0F3FC
:101C98000C04A8E7C03880B2FFF772FF0446A2E739
:101CA80010F4006FC4B214BF44F4484444F44044F0
:101CB80099E7C0F30B0444F4204494E703F00302CB
:101CC80001249440C0F3011044F40C4444EA002475
:101CD800C3F3810344EA43139CB284E798080124C0
:101CE80003F003039C4044EA401444F40A4470E7B8
:101CF8004AF2F40444EA032475E74AF2F00040EAA1
:101D0800042466E700F00F0000F09AF8C4F3031407
:101D180040EA042444F410445BE700BFBA4F0008CB
:101D2800B64F000807B5ADF804100199FFF716FF84
:101D3800FFF72CFF03B05DF804FB0000822825D0D4
:101D48000CD8312863D004D8292859D02A2865D03E
:101D5800704735284DD0392818D07047E32830D03F
:101D680004D8E02819D0E22826D07047E62832D0D7
:101D7800E72835D0E42832D1304B5A7891072ED550
:101D88001B7813F0100F08BFE72012E02B4B1B78CD
:101D980013F0030F18BFE0207047284A1378D907BB
:101DA80043D4527812F0010F19D013F0100F08BF66
:101DB800E32018BF00207047204B1B7813F0040F56
:101DC800F2E71E4A1378590731D45278D20730D433
:101DD80013F0100FEDE7194B1B781A07D1D4704791
:101DE800164A1378190726D452789207F0D5E420BA
:101DF800F5E7124B1B7813F0200F18BF2920704706
:101E08000E4B1B7813F0200F18BF352070470B4B73
:101E18001B7813F0400F18BF2A207047074B1B7818
:101E280013F0400F18BF3120704739207047E22067
:101E38007047E0207047E620704700BF100E002072
:101E4800294B1A78510707D500F01801082927D11E
:101E580000F0F70040F00400110707D500F0180162
:101E6800182926D100F0E70040F014005B78D90764
:101E780007D500F01801082924D100F0F70040F038
:101E88000100990707D500F01803182B23D100F09B
:101E9800E70040F01100D30648BF00F0E7007047A4
:101EA80000F01401042904BF00F0FB0040F0080012
:101EB800D2E700F01401142904BF00F0EB0040F051
:101EC8001800D3E700F01101012904BF00F0FE005B
:101ED80040F00800D5E700F01103112B04BF00F013
:101EE800EE0040F01800D6E7100E002000207047E2
:101EF80000207047014B1860704700BF040C002099
:101F0800FFF7EABC08B500F0F7F8642001F0C5F95E
:101F180000F0F2F8002000F037F8C30705D5FFF706
:101F2800EFFFBDE8084000F0B7BC08BD08B5FFF7F3
:101F3800E9FF08BD08B5FFF7D4FC08B9FFF756FD5F
:101F4800FFF7D9FC084B1870FFF7DFFC074B188028
:101F5800FFF7ECFFFFF7D2FCFEF7DDFF044B186834
:101F6800BDE80840FEF7F2BFD20C0020100E00209A
:101F7800440C0020704708B5FFF7FCFF08BD704708
:101F880008B5FFF7FCFF08BD014B33F81000704798
:101F98001A0E00207047012001F07FB900BF00BF72
:101FA80000BF00BF00BF00BF00BF00BF00BF00BF31
:101FB80000BF00BF00BF00BF00BF00BF00BF00BF21
:101FC80000BF00BF00BF704708B5FFF7E4FF08BDBA
:101FD80008B5202282F31188012100F00F039940EF
:101FE80020F00F0001F08BFF002383F3118808BD58
:101FF80038B50B4D002455F82400421C01D0FFF7DA
:10200800E7FF0134042CF6D1064D002455F82400CE
:10201800431C01D0FFF7DCFF01340C2CF6D138BD8E
:1020280018500008E84F00082DE9F843234F0D46E3
:1020380057F821100646481C3CD0202383F311880A
:102048004FF0010821F00F0901F00F0108FA01F41F
:10205800214642464846A4B201F051FFA9F81A4069
:10206800002484F31188FFF799FF1548234650F898
:102078002320511C20D022F00F0102F00F02096921
:1020880021FA02F2D20717D408FA03F109B2013390
:1020980021430C2B8CB2EAD157F82500431C01D000
:1020A800FFF796FF211C18BF01212846FFF78CFF78
:1020B80026F81540BDE8F8830021E8E71850000825
:1020C800E84F000808B5FFF793FF0949094A0023BC
:1020D80004200B8013804B8053808B809380CB80AF
:1020E800D38000F033F8BDE80840FEF75CBB00BFC2
:1020F800120E00201A0E002037B500240094019417
:10210800E1B268460134FFF78FFF042CF8D10D4C7B
:1021180069460822204602F055FE00281DBF6B467E
:1021280003CB012500251CBF206061602B460422DB
:102138000549044800F00CF8FEF73EFB284603B0BA
:1021480030BD00BF120E00201A0E0020704700009C
:10215800F8B506460F4615460D4C2BB101232370E2
:1021680000F06AFB0B4B1860237853B1094B1868D1
:1021780000F08CFB042804D90023AB4202DB0023C7
:102188002370F8BD36F8132027F813200133F4E73D
:10219800D30C0020D40C002008B500F019FB00F087
:1021A800E0FD00F0E1FD00F0F5FDFFF751FCFAE776
:1021B800014B185C704700BFD80C0020034BC218B5
:1021C800185C527840EA0220704700BFD80C002003
:1021D800014B1954704700BFD80C0020024B19540A
:1021E8001844090A41707047D80C0020044B195450
:1021F80018440B0A43700B0C090E8370C1707047AA
:10220800D80C0020A0F5C043B3F5005F09D3A0F5B2
:102218008043B3F5805F04D3A0F58073B3F5F85F0E
:102228000BD2C0B2031F9BB2232B0BD92B3880B221
:102238000D288CBF002001207047B0F5807F28BF93
:102248000020EFE70120704708B5FFF7DBFF08BD66
:1022580070B5FFF7F9FF40B3144D288810B3144E3A
:1022680000F00DFB347842F6E06393FBF0F0FF28B2
:10227800D4BFC4EB0000C4F1FF0007EE900AB8EE2B
:10228800E70ADFED0C7A20EE270A02F055FD07EE8B
:10229800904AF8EEE77A37EE800AFCEEC07A17EE3D
:1022A800903A337000F0E6FA288070BDFE0C0020EA
:1022B800FC0C0020A779473D10B50F4C208800F092
:1022C800DEFAB0F57A7F16D90C4ADFED0D6A13787D
:1022D800594207EE101A07EE903AB8EEC77AF8EEB0
:1022E800E77AE7EE267AFCEEE77A17EE903A137073
:1022F80000F0C0FA208010BDFE0C0020FC0C00206D
:10230800A779473DF8B5144682789DF818701D46A0
:102318002B4B92B11C7000F0ADFA2A4B188004F1D7
:102328002003DBB2072B4AD804F007040120A040A1
:10233800C0B2BDE8F840FEF772BB1E78A6422FD1A6
:10234800204B188800F09BFAB0F5967F28D2AE4251
:1023580005F1200415D006F12003DBB2072B06D8BF
:1023680006F007060120B040C0B2FEF761FBE3B2F9
:10237800072B1FD805F0070301209840C0B2FEF7CD
:102388004EFB3846E4B2FEF744FB072C17D805F09D
:1023980007050120A840C0B2BDE8F840FEF748BBD9
:1023A80004F12003DBB2072B09D804F0070401204D
:1023B800A040F0E73846BDE8F840FEF72ABBF8BD74
:1023C800000D0020020D002013B545F6F443044625
:1023D8009C42084626D011D845F6D9439C421CD0C9
:1023E80045F6DA439C4237D045F6D8439C420ED195
:1023F80026230093E1231A4621461EE045F6F643BC
:102408009C421FD013D345F6F7439C421FD08078D7
:1024180030B3144B00221A7012E027230093E523EF
:10242800E522E9E726230093E022E123E4E72723D6
:102438000093E422E52345F6F541FFF763FF00200A
:1024480002B010BD26230093E222E123D4E727231C
:102458000093E622E523CFE7282300930123DFE753
:102468000120EDE7000D002038B5054688780028E2
:1024780000F0FD8045F602439D42C0F0F98045F624
:1024880015439D4205D9A5F5B9437B3B082B00F2BE
:10249800EF80FFF73AFA774C45F610439D422080CB
:1024A80000F0B48039D845F608439D4200F08C808E
:1024B8001CD845F604439D4276D00ED845F6024313
:1024C8009D4268D045F603439D4269D02088FFF7B6
:1024D80028FAFEF7CBFC002038BD45F606439D429E
:1024E8006ED065D9237843F0200357E045F60C43B6
:1024F8009D4277D008D845F60A439D426ED067D9E9
:1025080023786FF3000349E045F60E439D4271D0EE
:102518006CD923786FF3041340E045F6FC439D42E1
:102528004AD020D845F613439D4277D00DD845F6BA
:1025380011439D426ED045F612439D42C6D1FEF727
:1025480095FC23786FF3C71328E045F615439D42A1
:102558006CD07ED345F6FB439D42B7D1637843F0F8
:1025680001036370B2E7B5F5BA4F5BD008D845F6FA
:10257800FE439D4246D041D9637843F00303F0E718
:1025880045F602539D426ED05AD345F603539D42F9
:102598009CD1002068E0237843F00103237095E77D
:1025A800237843F00203F9E7237843F00403F5E7BF
:1025B800237843F00803F1E7637843F00203D0E798
:1025C800237843F01003E9E7237843F04003E5E775
:1025D800FEF74CFC237843F08003DFE7237843F0D1
:1025E8000C03DBE723786FF34103D7E723786FF316
:1025F8008203D3E723786FF3C303CFE763786FF3DE
:102608000003AEE763786FF34103AAE723786FF31B
:102618004513C3E723786FF38613BFE7237803F0E6
:10262800F703E4E7637803F0FD03E8E7237883F032
:102638000402C2F3800262F3820362F3C303ADE7CC
:102648006378DA4302F0010262F3000362F34103A4
:1026580087E7FEF70BFC2378C3F3C01282F0010270
:1026680062F3C7139AE70120FFF7C2F92EE70120AA
:1026780038BD00BF100E002045F61643984210B52D
:102688000C461FD1FFF748F8A1780F4A0F4B81B1CC
:1026980000F0AA00002814BF012100211170186859
:1026A80014BF3521292100F08AF8FFF7A7F8002088
:1026B80010BD12781868002A14BF3521292100F0AE
:1026C80080F8F2E7012010BD040D0020000C002066
:1026D800014B1860704700BF080D0020024B1868B6
:1026E80008B1036818477047080D0020024B1B68A3
:1026F8000BB15B6818477047080D0020054B198817
:10270800814205D01880044B1B680BB1DB68184761
:10271800704700BF0E0D0020080D0020054B1988DA
:10272800814205D01880044B1B680BB11B69184700
:10273800704700BF0C0D0020080D0020821C00F11E
:10274800080300209A4200D1704712F8011B0029A3
:10275800F8D00130C0B2F5E739B1831C083013F85E
:10276800012B914203D08342F9D100207047012008
:10277800704730B54FF0FF33851C002215F8014B28
:102788008C420CD0B3F1FF3F02D1002C08BF134696
:102798000132D4B2062C62B2F0D15A1C00D130BD3D
:1027A8001844817030BD10B5831C002208301C7895
:1027B8008C4208BF1A7001338342F8D110BDFFF76D
:1027C800D8BFFFF7F0BF0023C0F80230C3807047BE
:1027D80008B500F0E9FDBDE8084000F055BB7047BA
:1027E80008B5FFF7FCFF08BD08B5FEF7ABFFFEF71D
:1027F800BFFF084B1868FFF7E6FF0020FFF77EFFD2
:102808000020FFF78BFFFFF769FFFEF742F8FFF79D
:10281800E7FF08BD000C002008B5202383F31188CA
:1028280000F0E6FD002383F31188014B186008BD12
:10283800100D0020FFF7F0BF38B5202383F311886F
:1028480000F0D6FD002383F31188094B196842F282
:102858000F74411A00254FF47A70E0FB014542F2EB
:102868001072002320462946FDF79EFD38BD00BFA3
:10287800100D002008B5FFF7DFFF80B208BD10B5C6
:102888000446FFF7D9FF001B80B210BD10B50446FF
:10289800FFF7D2FF001B10BD074B084A1A60BFF3B1
:1028A8004F8F0749074BCA6802F4E0621343CB60B5
:1028B800BFF34F8F00BFFDE7FCFF0020EFBEADDE8A
:1028C80000ED00E00400FA050A4A08B552F8041CB5
:1028D800094B99420DD1002342F8043C83F3148834
:1028E800064B1B6883F3088862B6054B1B6898473C
:1028F800FEE708BD00000120EFBEADDE0000FF1FAF
:102908000400FF1F10B5084A084C117824784B1CA6
:1029180003F00F039C421FBF054C13706054012045
:1029280008BF002010BD00BF320E0020330E00206B
:10293800220E0020202383F31188002383F31188BB
:102948007047704738B5094C10462246002542F8B2
:10295800045F40EA0120194600F024FA6368206009
:10296800AB4214BF2046284638BD00BF140D0020D6
:1029780090F84A30022B054B1A7804D102F0FB027A
:10298800012A02D15A78024B1A707047580D00205C
:10299800480D0020042938B505460C461AD00529EB
:1029A80013D0022918D1202383F311880B4A01215F
:1029B80000F055FD0A4A2146284600F050FD002344
:1029C80083F31188074B1B7833B10520BDE83840E5
:1029D800FFF798BF0846F9E738BD00BF2850000840
:1029E8004C500008510D002070B504460648C368D5
:1029F8000D460BB100F0D6FA2B462146034A024891
:102A0800BDE8704000F07CBA340D0020192A000897
:102A1800F8B50546202383F311880378042B03D0E7
:102A2800002383F31188F8BD124C2278002AF7D0CE
:102A3800114B1B78002BF3D003899B0704D4082380
:102A48000E4A012100F05FFD207842F21073A0FBCE
:102A5800030140F2E73680194FF000074FF47A720D
:102A68004FF000037941FDF79FFC29468000FFF7EE
:102A7800BBFFD5E7300D0020080C0020490D0020D1
:102A8800F8B590F8443003F07F02212A04466CD14F
:102A980013F0800525D0002D67D090F84500022856
:102AA80019D003280ED001285FD194F848302BB9EB
:102AB8003D4AA2630822E2632364F8BD0023A363AE
:102AC800E363F9E7B4F84830002B4ED1374AA263E4
:102AD8000120E063F0E7364BA3630120E0630023A5
:102AE800EAE790F845300A2B3AD00B2B0DD0092B8A
:102AF8003BD190F84830012B37D82E4B8363022303
:102B0800C3632D4B23640120F8BDB0F848501DBBAA
:102B180090F84630254A003318BF01231370244B20
:102B28001A78CAB1202282F31188187842F21073F9
:102B3800A0FB030140F2E73680194FF000074FF47D
:102B48007A724FF000037941FDF72EFC2146800090
:102B5800FFF74AFF85F311880023A363E363D1E7F6
:102B6800134B90F847201A70DBE7B4F8442040F282
:102B780081639A4201D00020F8BD94F84920616829
:102B880094F848304D6894F8471043EA02232046E9
:102B980094F84620A8470028EDD04368A36303684B
:102BA800E3630023AEE700BF490D0020080C0020B6
:102BB800300D0020580D00207929000870470000CA
:102BC80008B510220021044802F00BF9034A00233B
:102BD8001370034A137008BD220E0020320E002025
:102BE800330E0020F8B5114D114E2C4632782B7853
:102BF800104F00219A4216D018460133385C042839
:102C080003F00F034FF0010108D00528F2D123701B
:102C1800094B00221A70FFF7E7FDE7E72370064B20
:102C280001221A70E2E701B12270F8BD330E0020CC
:102C3800320E0020220E0020510D0020426D936BB1
:102C480023F4002310B59363044643F6982000F05C
:102C580024FB0649204600F0F0FB626D936B43F4B9
:102C680000239363024B0022DA6010BD7050000805
:102C7800340D0020014B1878704700BF480D002024
:102C880038B50546202383F31188104C2378042B8C
:102C98000DD123899B070ED408232A4601210B480E
:102CA80000F031FC0A4A2B6813606B6853600023FC
:102CB80083F3118838BD236958694FF0FF310C3010
:102CC80000F0F8FA2378042BF1D1E5E7041000208E
:102CD800490D00207047000008B50146202383F302
:102CE800118808480378042B03D0002383F3118844
:102CF80008BD054A0323A2F801100221137000F051
:102D080002FCF2E704100020520D002008B501462D
:102D1800202383F3118808480378042B03D0002369
:102D280083F3118808BD054A1370A2F80110032324
:102D3800022100F0E8FBF2E704100020520D002009
:102D4800FFF7C2BD704708B5FFF7FAFF01F0ACFF07
:102D5800FFF7F8FF08BD08B501F0ECFFFDF7ACFC84
:102D680008BDFEF761BE000008B5FFF729FF074858
:102D7800FFF764FF4FF4FA7000F08FFAFEF76EFE6B
:102D88000348BDE80840FFF7A3BC00BF04100020BB
:102D98000C0C002008B5FFF725FFBDE80840FEF73A
:102DA80065BE0000030A032B18D006D8012B0ED0ED
:102DB800022B10D0002003460BE0212B17D0222B2A
:102DC800F8D1E9B10129F5D132200F4B01E00F4BC1
:102DD8001220136070473B200D4BFAE7C0B202285F
:102DE800E8D80C4B0C4953F82030085CF1E721B1C6
:102DF8000129DFD10920094BEBE70920084BE8E757
:102E08004020084BE5E700BF4A510008CA500008B7
:102E18008F500008805000088C500008BA500008F5
:102E2800A1500008DC500008024B034A1A60034A0C
:102E38005A607047340E00208010002000000120E6
:102E480070477047FEE700000D4B70B503F1800036
:102E58000024A3F1100126C90439AA4207D353F864
:102E6800041C8A4208D310338342F2D170BD51F852
:102E7800046F42F8046BF0E742F8044BF1E700BF37
:102E88008C510008FEE7000010B50D4C00F00AF95F
:102E980000F028F8FFF7C8FF80220A49204600F012
:102EA800B3F9012344F8180C037400F02FFA002337
:102EB80083F3118862B60448BDE8104000F0D0B929
:102EC800A80F0020FC5100080452000800F0A4B824
:102ED800034B59685A68521A9042FBD8704700BF92
:102EE800001000E0054B03F114025A619A614FF09B
:102EF800FF32DA6100221A62704700BF800F00209B
:102F0800F8B5274F0361C2600D46044600F070FA19
:102F18003B46022D53F8142F294638BF02219A4206
:102F28003E461D460AD138627C61BC610844226075
:102F38006260A160BDE8F84000F049BAD7F820E027
:102F4800A0EB0E035F181FD300279068834217D8A1
:102F5800376AAA421F44376201D0C01A9060736969
:102F68009A68914219D85A682360626014605C605C
:102F7800A1609868411A99604FF0FF33F361F8BD7A
:102F880097601B1A1268E0E793689F4203D20EEB22
:102F9800070000F029FA3946E1E7891A1B68DFE7DC
:102FA800800F002038B51B4B01685A6990421D46B6
:102FB80003F114020CD04468216003680021934295
:102FC8005C60C16025D09A6881680A449A6038BDFF
:102FD80059614A605B6900219342C16003D1BDE831
:102FE800384000F0FCB99A6881680A449A602C6AF3
:102FF80000F0FEF96A699268001B824209D9111A29
:10300800012998BF821C286ABDE83840104400F0A6
:10301800EBB938BD800F00202DE9F84F204C002770
:10302800656904F11406B84600F0E2F9236AA0EBDA
:10303800030AAB6853451DD84FF02009236AAA68D4
:10304800D5F80CB013442362AB68AAEB030A2B68CB
:10305800B3425E606361EF6001D100F0C0F988F3AC
:1030680011882869D84789F311886569AB689A453A
:10307800E4D2D9E76369B34210D020629A68A2EB20
:103088000A029A60226AAB68821A9B1A022B2CBF2A
:10309800C0180230BDE8F84F00F0A6B9BDE8F88FB7
:1030A800800F0020024B00221B605B609A60704713
:1030B800800F0020002303748268054B1B68996801
:1030C8009142FBD25A6803604260106058607047B2
:1030D800800F002008B5202383F31188027C002389
:1030E800052A06D8DFE802F00B050503120E42692F
:1030F80013604FF0FF334361FFF7DCFF002383F3D6
:10310800118808BD426993680133936090E80C0008
:103118001A6002685360ECE7002303748268054B69
:103128001B6899689142FBD85A6803604260106036
:1031380058607047800F0020054B1969087418689B
:1031480002681A605360186101230374FDF712B90D
:10315800800F002030B54B1C87B005460A4C10D0B4
:1031680023690A4A01A8FFF7CBFE2846FFF7E4FFC8
:10317800049B13B101A8FFF715FF2369586907B02D
:1031880030BDFFF7D9FFF8E7800F0020DD300008D9
:1031980038B50C4D41612B6981689A6891420446A3
:1031A80003D8BDE83840FFF785BF1846FFF7B4FFDE
:1031B80001232C61014623742046BDE83840FDF701
:1031C800D9B800BF800F0020044B1A681B699068AB
:1031D8009B68984294BF002001207047800F002010
:1031E80010B5084C236820691A68226054600122CF
:1031F80023611A74FFF790FF01462069BDE810406B
:10320800FDF7B8B8800F0020022101740021826008
:1032180041740262C1618161704700008368C168BE
:10322800A3F18C0243F81C2C026943F84C2C426928
:1032380043F8482C094A43F82C2C022203F8182C8E
:10324800002243F8201C03F8172C43F8081C43F805
:103258000C2C43F8102CA3F12800704795030008A4
:1032680010B5202383F31188FFF7D8FF0021044607
:10327800FFF78EFF002383F31188204610BD00005E
:10328800024B1B6958610F20FFF756BF800F0020C3
:10329800202383F31188FFF7F3BF08B501462023E5
:1032A80083F311880820FFF755FF002383F3118863
:1032B80008BD0000054B1B6921B10360586103205C
:1032C800FFF748BF4FF0FF30704700BF800F002066
:1032D80003682BB10022026059611846FFF7EABE65
:1032E800704700230060406083607047EFF30983F4
:1032F80005494A6822F001024A60683383F3098865
:10330800002383F31188704730EF00E0202080F31A
:10331800118862B60B4B0C4AD96821F4E0610904A4
:10332800090C0A430949DA60CA6842F08072CA6027
:1033380007490A6842F001020A601022DA7783F826
:103348002200704700ED00E00003FA05F0ED00E010
:10335800001000E010B5202383F311880E4B5B6842
:1033680013F4006314D0F1EE103AEFF30984683CCB
:103378004FF08073E361094BDB68236684F30988A7
:10338800FFF722FF10B1064BA36110BD054BFBE709
:1033980083F3118810BD00BF00ED00E030EF00E0BE
:1033A800A7030008AA03000808B500F067FB00F0AF
:1033B800A5FD00F021F800F028F800F02FF8FFF73D
:1033C800CAFCBDE8084000F000B801F0D3BB4FF0DC
:1033D8008043002258631A610222DA6070474FF076
:1033E80080430022DA6070474FF08043586370478B
:1033F8004FF08043586A704700F0EABE012303701B
:10340800002343600C30FFF76CBF01F0F7BB0123CA
:10341800037000234360C3600374704700F060BF0B
:103428000123037000234360C36183620362C362A4
:103438004362036303814381704738B50446202300
:1034480083F3118800254160C56005614561856188
:1034580000F056FF0223237085F3118838BD70B53C
:1034680000EB810305465069DA600E46144618B130
:103478001422002101F0B5FCA06918B11422002122
:1034880001F0AFFC31462846BDE8704001F002B8B3
:10349800F8B5038903F001030381438903F00103AD
:1034A8000446438100F1100500F11C0600272B6833
:1034B80073B1586920B16FF001010C30FFF708FFB4
:1034C8002B68986920B16FF001010C30FFF700FFFD
:1034D80045F8047BB542EAD12046BDE8F84001F042
:1034E8006DB8F0B400EB81044789E4680125A4694C
:1034F8008D403D43458123600023A2606360E36003
:10350800F0BC01F083B8F0B400EB81040789E468EB
:10351800012564698D403D43058123600023A26035
:103528006360E360F0BC01F007B902232DE9F041C4
:10353800037000230446A0F84C3080F84E3080F821
:103548004F300381438100F10C0600F11C074FF056
:1035580020081D4633689BB188F311883368586981
:1035680020B16FF001010C30FFF7B2FE33689869A3
:1035780020B16FF001010C30FFF7AAFE85F3118826
:1035880046F8045BBE42E5D184F83450204600F08A
:103598001DFF63681B6823B120460021BDE8F04188
:1035A8001847BDE8F081F8B5037880F85030052356
:1035B800037043681B6804460BB104219847002335
:1035C8002381638104F10C0520271C341E462B68D7
:1035D8009BB187F311882B68586920B16FF00101FE
:1035E8000C30FFF775FE2B68986920B16FF0010168
:1035F8000C30FFF76DFE86F311880435A542E6D13D
:10360800F8BD436890F850201B6802700BB1052183
:103618001847704790F8343070B5044613B100234A
:1036280080F8343004F14402204600F0E6FF636875
:103638009B6863BB94F8445015F0600615D194F864
:10364800453005F07F0545EA032540F202339D42E7
:1036580000F00E815BD8022D00F0DC803FD8002DF1
:1036680000F08780012D00F0CF800021204601F076
:1036780063FA0021204601F055FA63681B6813B10C
:10368800062120469847062384F8343070BD20462A
:1036980098470028CED094F84B2094F84A3043EA53
:1036A8000223E26B934238BFE36394F94430E56B3D
:1036B800002B4FF0200380F2FD80002D00F0EC80FD
:1036C800092284F8342083F311880021E36BA26B6C
:1036D8002046FFF718FF002383F3118870BDB5F566
:1036E800817F00F0B180B5F5407F49D0B5F5807F86
:1036F800BBD194F84630012BB7D1B4F84C3023F045
:103708000203A4F84C30A663E6632664C3E740F2DC
:1037180001639D421ED8B5F5C06F3BD2B5F5A06FC9
:10372800A3D1B4F84430B3F5A06F0ED194F8463065
:1037380084F84E30204600F0A1FE63681B6813B180
:10374800012120469847032323700023A363E363E2
:103758002364A0E7B5F5106F32D040F602439D42CE
:1037680052D0B5F5006F80D104F14F03A363012354
:1037780024E004F14C03A3630223E36325648AE78E
:1037880094F84630012B7FF470AFB4F84C3043F016
:103798000203B6E794F84920616894F848304D6808
:1037A80094F8471043EA0223204694F84620A84795
:1037B80000283FF45AAF4368A3630368E363A4E7B0
:1037C8002378042B10D1202383F311882046FFF798
:1037D8005FFE86F31188636884F84F601B680321D5
:1037E80021700BB12046984794F84630002BACD096
:1037F80084F84F300423237063681B68002BA4D01F
:10380800022120469847A0E7374BA3630223E363CE
:1038180000239DE794F8481011F0800F204601F02E
:103828000F010ED000F0DCFE012806D002287FF43C
:103838001CAF2E4BA363E06367E72D4BA363E563DF
:1038480063E700F0C0FEEFE794F84630002B7FF402
:103858000CAF94F8483013F00F013FF476AF1A0616
:10386800204602D501F07CF96FE701F06FF96CE7AB
:1038780094F84630002B7FF4F8AE94F8483013F0F3
:103888000F013FF462AF1B06204602D501F054F940
:103898005BE701F047F958E7142284F8342083F3F2
:1038A80011882B462A4629462046FFF71AFE85F33B
:1038B800118870BD5DB1152284F8342083F3118816
:1038C8000021E36BA26B2046FFF70BFE03E70B22F8
:1038D80084F8342083F311882B462A46294620464B
:1038E800FFF711FEE3E700BF255200082152000848
:1038F8002352000838B590F834300446152B29D8DF
:10390800DFE803F03E28282828283E28280B2939F4
:1039180028282828282828283E3E90F84B1090F878
:103928004A20C36B42EA01229A4214D9C268128A19
:10393800B3FBF2F502FB15356DB9202383F311882B
:103948002B462A462946FFF7DEFD85F311880A2310
:1039580084F8343038BD142384F83430202383F3BA
:10396800118800231A4619462046FFF7BAFD00239E
:1039780083F3118838BD036C03B198470023E7E748
:10398800002101F0D9F80021204601F0CBF8636846
:103998001B6813B10621204698470623D8E790F8FC
:1039A8003420152A38B5044622D80123934040F61E
:1039B800416213421DD113F480150FD19B0217D514
:1039C8000B2380F83430202383F311882B462A46B2
:1039D8002946FFF798FD85F3118838BDC3689B69B0
:1039E8005B682BB9036C03B19847002384F8343023
:1039F80038BD002101F0A0F80021204601F092F81E
:103A080063681B6813B10621204698470623EDE733
:103A180000F1604300F01F02400903F5614309010A
:103A28008000C9B200F1604083F8001300F56140DE
:103A380001239340C0F8803103607047062108B520
:103A48000846FFF7E5FF06210720FFF7E1FF0621FB
:103A58000820FFF7DDFF06210920FFF7D9FF06211F
:103A68000A20FFF7D5FF06211720FFF7D1FF06210F
:103A78002820BDE80840FFF7CBBF000008B5214B60
:103A88001A6962F01F021A611A6902F01F021A61AC
:103A98004FF0FF301A695A69586100215A69596113
:103AA8005A691A6A62F080521A621A6A02F08052DF
:103AB8001A621A6A5A6A58625A6A59625A6A1A6CB7
:103AC80042F080521A641A6E42F080521A661A6ED8
:103AD8000D4A106840F480701060186F00F4407050
:103AE800B0F5007F1EBF4FF4803018671967536820
:103AF80023F40073536000F0DFF9BDE80840FFF7D6
:103B08009DBF00BF0038024000700040354B4FF0A9
:103B180080521A64344A4FF4004111601A6842F026
:103B280001021A601A689207FCD59A6822F003020B
:103B38009A602C4B19469A6812F00C02FBD118684F
:103B480000F0F90018609A601A6842F480321A602E
:103B58000B689B03FCD54B6F43F001034B67214B6C
:103B68005A6F9007FCD5214A5A601A6842F0807251
:103B78001A601D4A53685904FCD51A4B1A689201F9
:103B8800FCD51B4A9A600322C3F88C20194B1A688B
:103B9800194B9A42194B21D1194A1168194A914275
:103BA8001CD14FF481721A60144A136803F00F0392
:103BB800022BFAD10B4B9A6842F002029A609A687B
:103BC80002F00C02082AFAD15A6C42F480425A6474
:103BD8005A6E42F480425A665B6E704740F2027237
:103BE800E1E700BF00380240007000401954410767
:103BF80000948838002004E011640020003C024052
:103C080000ED00E041C20F4108B5074B074A1968AB
:103C180001F03D01996053680BB190689847BDE881
:103C28000840FFF797BB00BF00600240700D0020FE
:103C380008B5084B1968890901F03D018A019A60A5
:103C4800054AD3680BB110699847BDE80840FFF7EB
:103C580081BB00BF00600240700D002008B5084B12
:103C68001968090C01F03D010A049A60054A536974
:103C78000BB190699847BDE80840FFF76BBB00BFE0
:103C880000600240700D002008B5084B1968890DC6
:103C980001F03D018A059A60054AD3690BB1106AA3
:103CA8009847BDE80840FFF755BB00BF00600240D9
:103CB800700D002008B5074B074A596801F03D010F
:103CC800D960536A0BB1906A9847BDE80840FFF77E
:103CD80041BB00BF00600240700D002008B5084BD2
:103CE8005968890901F03D018A01DA60054AD36AF9
:103CF8000BB1106B9847BDE80840FFF72BBB00BF1E
:103D080000600240700D002008B5084B5968090C86
:103D180001F03D010A04DA60054A536B0BB1906B60
:103D28009847BDE80840FFF715BB00BF0060024098
:103D3800700D002008B5084B5968890D01F03D0148
:103D48008A05DA60054AD36B0BB1106C9847BDE859
:103D58000840FFF7FFBA00BF00600240700D002066
:103D680008B5074B074A196801F03D019960536C83
:103D78000BB1906C9847BDE80840FFF7EBBA00BF5D
:103D880000640240700D002008B5084B19688909C5
:103D980001F03D018A019A60054AD36C0BB1106DA0
:103DA8009847BDE80840FFF7D5BA00BF0064024055
:103DB800700D002008B5084B1968090C01F03D0189
:103DC8000A049A60054A536D0BB1906D9847BDE897
:103DD8000840FFF7BFBA00BF00640240700D002022
:103DE80008B5084B1968890D01F03D018A059A60EC
:103DF800054AD36D0BB1106E9847BDE80840FFF730
:103E0800A9BA00BF00640240700D002008B5074B36
:103E1800074A596801F03D01D960536E0BB1906EA5
:103E28009847BDE80840FFF795BA00BF0064024014
:103E3800700D002008B5084B5968890901F03D014B
:103E48008A01DA60054AD36E0BB1106F9847BDE856
:103E58000840FFF77FBA00BF00640240700D0020E1
:103E680008B5084B5968090C01F03D010A04DA60ED
:103E7800054A536F0BB1906F9847BDE80840FFF7AC
:103E880069BA00BF00640240700D002008B5084BF5
:103E98005968890D01F03D018A05DA60054AD36F3A
:103EA80013B1D2F880009847BDE80840FFF752BA2E
:103EB80000640240700D00200D4A30B500230D4CFF
:103EC80013600C25194605FB03F00059016002EB4D
:103ED800C3000133102B4160F5D1074A4FF0FF337F
:103EE8009360D360C2F80834C2F80C3430BD00BF08
:103EF800700D0020285200080060024070472DE92C
:103F0800F74FC2F3C31302F00308C2F3800CC2F3E5
:103F1800C10EC2F341170193454600244FF0010931
:103F28004FF0030ACB073CD5019A04F007039B0026
:103F380002FA03F60F2202FA03F3426809FA04FBB5
:103F480022EA0B0242EA0C0242606200D0F808B092
:103F58000AFA02F2D2430BEA020B4BEA0E0BC0F844
:103F680008B0D0F80CB002EA0B0B4BEA070BB8F11B
:103F7800020FC0F80CB06FEA03031CD1072C95BFE1
:103F8800D0F820B0D0F824B003EA0B0303EA0B03FF
:103F980095BF334333430362436203681A402A439D
:103FA8000260490819D04FEA4C0C4FEA8E0EBF0048
:103FB800AD000134B6E7D0F800B002EA0B022A439C
:103FC800072C026095BF026A426A1340134095BFEE
:103FD8001E431E4306624662E3E703B0BDE8F08F66
:103FE8003D483E4A70B5446BA369656945EA034399
:103FF80023F07F43934202462AD010D8B3F1011F21
:104008001AD037498B4217D015F00A0F18BFA36989
:10401800EB0542BF636923F48073636146E0314A6C
:1040280093422BD00232934233D02F4A9342EBD1A2
:10403800038CC3F3470309E0138C1A0A06D003F074
:10404800010343F0F00302F0060213432361DBE7A8
:10405800636823F400736360C36A1B681A6842F0DC
:1040680001021A60626842F4805262605B68012B48
:10407800CAD8236823F480632360C5E7636823F400
:1040880000736360036B1A68136843F001031360DD
:10409800BAE72369C36A1B685E685EB1038C43F0A4
:1040A80001030384236843F4A0632360BDE87040E0
:1040B800FFF750B9636823F400736360236843F41F
:1040C80000732360202383F3118831461C30FFF7E7
:1040D800FFF886F3118897E7CC0F00200200030051
:1040E800010003008200070008000300364B5A6BEA
:1040F800506970B500F45F44E44354611C6B256853
:104108002E6826F01F0681B22E602E68F607FCD4B2
:10411800667A65683D24B4402C60DC6A25682E68A0
:1041280026F01F062E602E68F607FCD4667A6568AE
:104138003D24B4402C6011F480741DBF01249C60A0
:1041480054699C601CBF24F4807454618C0542BF80
:104158009C6844F002049C604E050BD5546824F416
:1041680000745460146844F4007414609A6842F04F
:1041780004029A600D0542BF9A6842F008029A60EC
:104188004C0442BF9A6842F020029A60C90442BFB8
:104198009A6842F010029A60020442BF9A6842F09C
:1041A80040029A609B6853B1202383F311886FF013
:1041B80001010648FFF78CF8002383F31188BDE856
:1041C8007040FFF7C7B800BFCC0F0020E80F0020F1
:1041D80010B5054C2046FFF711F90023034AE361A7
:1041E8006263E362236310BDCC0F002000540040DB
:1041F800836D70B5446D9E6800214FF0FF354A010C
:10420800A3180131D3F800090028BEBFD3F800096C
:1042180040F08040C3F80009D3F8000B0028BEBF67
:10422800D3F8000B40F08040C3F8000BA3188E426F
:10423800C3F80859C3F8085BE1D24FF00113C4F87A
:104248001C3870BD890141F02001016103699B069A
:10425800FCD41220FEF73CBE204B03EB80022DE974
:10426800F047D2F80CE05D6DDEF81420461CD2F859
:1042780000C005EB063605EB4018516861450BD3C5
:10428800D5F83428012303FA00F022EA0000C5F823
:1042980034081846BDE8F087BEF81040ACEB0103BF
:1042A800A34228BF2346D8F81849A4B2B3EB840F19
:1042B80010D894681F46A4F1040959F804AFC6F849
:1042C80000A0042F01D9043FF7E71C440B44946075
:1042D8005360D2E70020BDE8F08700BF041000203B
:1042E80010B5054C2046FFF79BF84FF0A0436365D7
:1042F800024BA36510BD00BF041000200C5300083A
:104308000378012B70B5054650D12A4B446D98426D
:104318001BD1294B5A6B42F080025A635A6D42F006
:1043280080025A655A6D5A6942F080025A615A6988
:1043380022F080025A610E2143205B69FFF768FB77
:104348001E4BE3601E4BC4F800380023C4F8003E3F
:10435800C02323606E6D4FF43413A3633369002BBD
:10436800FCDA012333610C20FEF7B2FD3369DB0769
:10437800FCD41220FEF7ACFD3369002BFCDA0026D2
:10438800A6602846FFF734FF6B68C4F81068DB683E
:10439800C4F81468C4F81C684BB90A4BA3614FF001
:1043A800FF336361A36843F00103A36070BD064B4C
:1043B800F4E700BF04100020003802404014004019
:1043C80003002002003C30C0083C30C0F8B5446D02
:1043D800054600212046FFF735FFA96D00234FF061
:1043E80001128F68C4F834384FF00066C4F81C28EE
:1043F8004FF0FF3004EB431201339F42C2F80069CB
:10440800C2F8006BC2F80809C2F8080BF2D20B68B0
:104418006A6DEB65636210231361166916F0100666
:10442800FBD11220FEF754FDD4F8003823F4FE63C4
:10443800C4F80038A36943F4402343F01003A36190
:104448000923C4F81038C4F814380A4BEB604FF04D
:10445800C043C4F8103B084BC4F8003BC4F81069CB
:10446800C4F80039EB6D03F1100243F48013EA65D8
:10447800A362F8BDE852000840800010426D90F831
:104488004E10D2F8003823F4FE6343EA0113C2F851
:10449800003870472DE9F0410EB200EB86080D4652
:1044A800D8F80C100F6807F00303022B50D0032B29
:1044B80050D03D4A3D4F012B18BF1746446D4FEA77
:1044C800451E04EB0E030022C3F8102B8A6905F180
:1044D800100C002A40D04A8A05F158035B013A4380
:1044E800E2500123D4F81C2803FA0CF31343A64422
:1044F8004A69C4F81C380023CEF8103905F13F0387
:10450800002A39D00A8A898B9208012988BF4A4330
:10451800C16D04EB8303561841EA0242C665294679
:104528005A602046FFF78EFED8F80C301B8A43EA03
:1045380085531F4305F148035B01E7500123D4F875
:104548001C2803FA05F51543C4F81C58BDE8F0818A
:10455800174FB3E7174FB1E704EB4613D3F8002B17
:1045680022F40042C3F8002BD4F81C28012303FAD4
:104578000CF322EA0303BAE704EB83030E4A5A60FA
:1045880004EB461629462046FFF75CFED6F80039AC
:1045980023F40043C6F80039D4F81C38012202FA83
:1045A80005F523EA0505CFE7008000100080041018
:1045B8000080081000800C1000040002826D126850
:1045C800C265FFF715BE5831436D49015B5813F4B6
:1045D800004004D013F4001F14BF012002207047CC
:1045E8004831436D49015B5813F4004004D013F47B
:1045F800001F14BF01200220704700EB8101CB6827
:10460800196A0B6813604B685360704700EB8103AD
:1046180030B5DD68AA691368136119B9402B84BFE6
:10462800402313606B8A1468426D1C44013CB4FB40
:10463800F3F46343033323F0030302EB411043EA2B
:10464800C44343F0C043C0F8103B2B6803F0030396
:10465800012B09B20ED1D2F8083802EB411013F43D
:10466800807FD0F8003B14BF43F0805343F00053E1
:10467800C0F8003B02EB4112D2F8003B43F0044380
:10468800C2F8003B30BD0000F8B52A4C666D06EB59
:1046980040130546D3F8087BC3F8087B38070AD5CA
:1046A800D6F81438190706D504EB85032946DB68C4
:1046B80020465B689847FA073BD5D6F81438DB07DD
:1046C80037D5AE1C04EB86035968C5B98B69488A8F
:1046D8005F68B7FBF0F200FB127282B918681A69BA
:1046E80090420CD2121A83E82400202383F3118805
:1046F80010482946FFF78AFF85F31188F8BD012382
:1047080003FA05F2638923EA02036381CB6813B1D4
:10471800294608489847202383F3118804EB860428
:104728006368986941680C30FEF7D2FD002383F373
:104738001188F8BD0410002000EB810370B5DD6816
:10474800436D6C69266826614A0156BB1A444FF4CA
:104758000020C2F810092A6802F00302012A0AB2EE
:104768000ED1D3F8080803EB421410F4807FD4F874
:10477800000914BF40F0805040F00050C4F8000910
:1047880003EB4212D2F8000940F00440C2F80009D5
:10479800D3F83408012202FA01F10143C3F83418AE
:1047A80070BD19B9402E84BF4020206020682E8A31
:1047B800841940F00050013C1A44B4FBF6F440EA76
:1047C800C440C6E72DE9F04104462848466D06EB8B
:1047D80044130546D3F80879C3F8087917F0010F90
:1047E8001BD0D6F81038DA0717D504F1020800EB09
:1047F800880359684B69D3F800E01A69964519D2BD
:10480800A2EB0E0200251A605D60202383F3118855
:104818002146FFF791FF85F311883B0624D5D6F88A
:1048280034280123A34013421ED02046BDE8F0419E
:10483800FFF712BD012303FA04F2038923EA0203F6
:1048480003818B680BB121469847202383F3118895
:1048580005EB880500216B6858690C30FEF738FDB8
:10486800002383F31188D8E7BDE8F0810410002005
:104878002DE9F74FAA48456D6E69AB691E4016F4DD
:10488800805F6E61044606D0FEF74FFE03B0BDE8B8
:10489800F04FFEF75FBD002E12DAD5F8003EA048B3
:1048A8009B071EBFD5F8003E23F00303C5F8003E62
:1048B800D5F8043823F00103C5F80438FEF7A1FE43
:1048C800370505D59648FFF793FC9548FEF76BFE2C
:1048D800B0040CD5D5F8083813F0060FEB6823F4AC
:1048E80070530CBF43F4105343F4A053EB603107EB
:1048F80004D56368DB680BB189489847F2025FD436
:10490800B30210D5636DDFF818B201934FF00008B9
:104918004FF001094FF0200AA26D92685FFA88F102
:104928008A4280F09A80F70619D5616D0A6AC2F347
:104938000A1702F00F0302F4F012B2F5802F00F00C
:10494800C480B2F5402F0AD104EB830301F58051EE
:10495800DB68186A00231A469F4240F0AA80300399
:10496800D5F8184813D5E10302D50020FFF78CFECF
:10497800A20302D50120FFF787FE630302D50220B8
:10498800FFF782FE270302D50320FFF77DFE75039C
:104998007FF57CAFE00702D50020FFF713FFA107E2
:1049A80002D50120FFF70EFF620702D50220FFF7AC
:1049B80009FF23077FF56AAF0320FFF703FF65E7C9
:1049C800636D01934FF000084FF001094FF0200A82
:1049D800A36D9B685FFA88F7BB4291D3019B03EBF9
:1049E8004713D3F8002902F44022B2F5802F31D1C1
:1049F800D3F80029002A2DDAD3F8002942F0904292
:104A0800C3F80029D3F80029002AFBDB3946606D7A
:104A1800FFF718FC228909FA07F307F1020B22EACB
:104A2800030304EB8B0223815268926812B1394662
:104A38003B4890478AF3118804EB8B0300215B689D
:104A480058690C30FEF744FC002383F3118838467C
:104A5800FFF702FC08F10108BAE7019B03EB4110DC
:104A6800D0F8002B02F44022B2F5802F1ED1D0F8E6
:104A7800002B002A1ADA608909FA01F220EA0202F8
:104A88008F1C628104EB87025268D2680AB15846CB
:104A980090478AF3118804EB87077A689069416820
:104AA8000C30FEF715FC002282F3118808F101088A
:104AB80032E79C0708BF0A68072B98BF027003F10A
:104AC80001039CBF120A013046E7023304EB83025C
:104AD80001F58051526890690268D0F808C04068B2
:104AE800A2EB000E0022104697420AD104EB830481
:104AF80063689B699A683A449A605A6817445F6089
:104B08002DE712F0030F08BF0868964588BF8CF898
:104B1800000002F1010284BF000A0CF1010CE3E776
:104B280004100020436D03EB4111D1F8003B43F41E
:104B38000013C1F8003B7047436D03EB4111D1F8F6
:104B4800003943F40013C1F800397047436D03EB93
:104B58004111D1F8003B23F40013C1F8003B704722
:104B6800436D03EB4111D1F8003923F40013C1F868
:104B780000397047114B1A6C42F001021A641A6E20
:104B880042F001021A660E4A1B6E936843F0010355
:104B980093604FF0804341F267029A624FF0FF3210
:104BA800DA6200229A615A63DA605A6001225A6115
:104BB80008211A601C20FEF72BBF00BF00380240F6
:104BC800002004E04FF0804208B51369D1680B401B
:104BD800D9B2C9439B07116107D5202383F31188F4
:104BE800FEF774F9002383F3118808BD08B5FFF7B1
:104BF800E9FFBDE80840FEF7ADBB000010B5044C66
:104C08002046FEF704FC04232374024BA36110BD65
:104C180064100020000C0040836970B51D69DA68D3
:104C28001540EAB2D243AE0704461A6103D5436879
:104C38001B6903B19847680704D563689B690BB182
:104C480020469847290704D563681B6A0BB120469C
:104C58009847EA0604D563689B6A0BB120469847D3
:104C6800EB0706D563689B681BB12046BDE870401A
:104C7800184770BD08B50348FFF7CEFFBDE80840E8
:104C8800FEF768BB641000204B6843608B68836044
:104C9800CB68C3600B6943614B6903628B694362EC
:104CA8000B6803607047000008B51A4B1A481A6968
:104CB80042F01F021A611A6922F01F021A611A696A
:104CC8001A6B42F01F021A631A6D42F01F021A652E
:104CD800124A1B6D1146FFF7D7FF114802F11C015C
:104CE800FFF7D2FF0F4802F13801FFF7CDFF0E485A
:104CF80002F15401FFF7C8FF0C4802F17001FFF7F9
:104D0800C3FF0B4802F18C01FFF7BEFFBDE8084066
:104D1800FEF7FCBE003802400000024018530008AD
:104D28000004024000080240000C0240001002404B
:104D3800001C02407047000010EE102A22F00041CB
:104D4800CB0D7F3B162B1CDC002B10EE100A21DB51
:104D5800194919410A421CD0DFED187A70EE277AFA
:104D6800F5EEC07AF1EE10FA13DD002A04DD4FF4F7
:104D7800000242FA03F3184420EA010300EE103A55
:104D88007047B1F1FF4F04D330EE000A70479FED32
:104D98000C0A7047DFED097A70EE277AF5EEC07AD3
:104DA800F1EE10FAF5DD002AF1DB0029F7EE007AC2
:104DB80018BFB0EE670A7047FFFF7F00CAF249715B
:104DC8000000008010B501390244904201D1002052
:104DD80010BD10F8013B11F8014FA342F5D0181B84
:104DE80010BD02440346934200D1704703F8011BEB
:024DF800F9E7D9
:044DFC00F8B500BF47
:044E0000F8B500BF42
:104E04002B0014001A000800150017001C001800DD
:104E14000C00120013002A002900040016000700E9
:104E240009000A000B000D000E000F0033003400CF
:104E3400E1001D001B000600190005001100100010
:104E44003600370038002800E000E300E2004600A6
:104E540001512C002C0002515000510052004F000F
:104E640035021E021F022002210222022302240212
:104E74002502260227024C004C003A003B003C006D
:104E84003D003E003F002D022E022F02300231026F
:104E9400010040004100420043004400450032024A
:104EA40064024A004D0001000100010001000100FC
:104EB4000100010001000100AB00AA00A900AE003E
:104EC40035001E001F0020002100220023002400C2
:104ED4002500260027004C004C003A003B003C0013
:104EE4003D003E003F002D002E002F003000310019
:104EF40001004000410042004300440045003200EC
:104F040064004B004E00010001000100010001009B
:104F14000100010001000100AB00AA00A900AE00DD
:104F24000100005C015C01000100010001000100BE
:104F34000100010001004C0001000100010001001A
:104F44000100135C0A5C635D0100010001000100C3
:104F5400010001000100010001002C5C2D5C000037
:104F64000000010001000100010001000100010036
:104F74000100010001000100010001000100010025
:104F840081828300E200E900EA00B500B600B700C0
:104F9400CD008301CC008A019201940121022302F5
:104FA40024022502260227022A02B300B4006F005D
:104FB400700081828300E200E900EA00B500B600D7
:104FC400B700CD008301CC008A0192019401210233
:104FD400230224022502260227022A02B300B40077
:104FE4006F00700009040240080402400C040240EF
:104FF4000E0402400504024004040240030402407B
:10500400080002400F040240000402400104024070
:105014000A0402400500024004000240030002406A
:10502400020002400300000000000000C52B00083D
:1050340000000000080000001C0D0020000000001B
:105044000200000000000000030000000000000057
:105054004B29000800000000200000005C0D002027
:105064000000000002000000000000009D2900086C
:105074004D290008892A00083D2900081C51000810
:10508400205100083251000804101609023B0002A6
:105094000100A0FA09040000010301010009211123
:1050A40001000122400007058103080001090401F1
:1050B4000001030000000921110100012232000750
:1050C4000582032000011201000200000040EDFEF1
:1050D4002A0001000102000105010906A1010507DA
:1050E40019E029E71500250195087501810295014C
:1050F400750881010507190029FF150026FF009591
:1051040006750881000508190129059505750191A1
:1051140002950175039101C00403090410034300BF
:105124006900700075006C006F00740000001603C5
:105134004F006C006500640020004D0061006300B6
:1051440072006F00000005010980A10185031901A7
:105154002AB700150126B700950175108100C00516
:105164000C0901A101850419012AA002150126A038
:1051740002950175108100C0E853000880100020DA
:105184008010002080100020E85300080000000078
:105194000000000000000000E853000800000000C8
:1051A4000000000000000000E853000800000000B8
:1051B4000000000000000000E853000800000000A8
:1051C4000000000000000000E85300080000000098
:1051D4000000000000000000E85300080000000088
:1051E4000000000000000000E85300080000000078
:1051F40000000000000000006D61696E0000000006
:105204001C520008400E0020800F00200100000006
:105214008D2E00080000000069646C650000000128
:105224000000000010600240086002400000000B13
:1052340028600240086002400006010C4060024001
:10524400086002400010020D5860024008600240ED
:105254000016030E706002400C6002400000040F50
:10526400886002400C60024000060510A060024005
:105274000C60024000100611B86002400C6002404D
:105284000016072F1064024008640240000008382A
:105294002864024008640240000609394064024060
:1052A4000864024000100A3A58640240086402404C
:1052B40000160B3B706402400C64024000000C3C7E
:1052C400886402400C64024000060D44A06402405D
:1052D4000C64024000100E45B86402400C640240A5
:1052E40000160F46000000001D360008FD380008B7
:1052F400A739000840004000F40D0020F40D002000
:1053040001000000080E00208000000040010000A1
:105314000300000000AAA02A00000000FFFFFFFF16
:1053240054500140FFFF00000000565500AA0A0037
:105334008020280000000000FFFFFFFF5545415575
:10534400FFFF0000000000044005000081802002EF
:1053540000000000FFFFFFFF15555505FFFF00008B
:105364000050006000060600000100550000000027
:10537400FFFFFFFF55515500FF0F00000000000024
:10538400000000004005000000000000FFFFFFFFD8
:1053940045555555FFFF00000000000000000000C7
:1053A4000000000000000000FFFFFFFF50555555AE
:0C53B400FFFF00000000000000000000EF
:0853C00020B0FF7F0100000096
:1053C800B00C0020F91E0008010000007D2C000828
:1053D800892C0008DD2C0008E12C0008152D000898
:040000050800037577
:00000001FF
